:100000000C942F020C9476020C9476020C947602D7
:100010000C9476020C9476020C9476020C94760280
:100020000C9476020C9476020C944B240C941F25AD
:100030000C94821F0C9476020C9476020C94760237
:100040000C9476020C9476020C9476020C94760250
:100050000C9476020C94D91F0C9476020C947602C0
:100060000C9476020C9476020C9476020C94760230
:100070000C9476020C9476020C9476020C94760220
:100080000C9476020C9476020C9476020C94760210
:100090000C9476020C9476020C9476020C94760200
:1000A0000C9476020C9476020C94760227001E00C3
:1000B0001F0020002100220023002400250026002C
:1000C0000400050006000700080009001B000500E9
:1000D0000B000151010000000000000001000100C0
:1000E000010001000100C35C01000100C45CD65C9A
:1000F000C55C01000100C75CC65C0100005C01003A
:100100003400010001000000000000001E0F050087
:10011000047F3F1F643214643214783C1E1E140A9C
:10012000052223252628292A2C2D2F303233353637
:10013000383A3B3D3E4042434547494A4C4E505178
:10014000535557595A5C5E6062646668696B6D6F9F
:1001500071737577797B7D7F81838587898A8C8EA2
:1001600090929496989A9C9E9FA1A3A5A7A8AAACAA
:10017000AEAFB1B3B4B6B8B9BBBCBEBFC1C2C3C5E4
:10018000C6C7C9CACBCCCDCED0D1D2D2D3D4D5D686
:10019000D7D7D8D9D9DADADBDBDBDCDCDCDCDCDDB9
:1001A000DDDDDDDCDCDCDCDCDBDBDBDADAD9D9D89D
:1001B000D7D7D6D5D4D3D2D2D1D0CECDCCCBCAC935
:1001C000C7C6C5C3C2C1BFBEBCBBB9B8B6B4B3B164
:1001D000AFAEACAAA8A7A5A3A19F9E9C9A989694FF
:1001E00092908E8C8A89878583817F7D7B797775D4
:1001F00073716F6D6B6968666462605E5C5A5957B3
:10020000555351504E4C4A4947454342403E3D3B71
:100210003A3836353332302F2D2C2A2928262523FB
:1002200022FFAA7F554000010101010101010101E6
:100230000202020202020202020303030303030397
:100240000304040404040404050505050506060664
:100250000606070707070708080808090909090A21
:100260000A0A0B0B0B0C0C0C0D0D0D0E0E0E0F0FC6
:100270000F10101111111212131314141515161654
:100280001717181819191A1A1B1B1C1D1D1E1E1FC3
:100290002020212222232424252626272829292A12
:1002A0002B2C2D2D2E2F303132323334353637383A
:1002B000393A3B3C3D3E3F40414243444546474836
:1002C000494A4C4D4E4F50515354555658595A5B0C
:1002D0005D5E5F616264656668696B6C6D6F7072AC
:1002E000737577787A7B7D7E8082838587888A8C18
:1002F0008E8F91939596989A9C9EA0A2A3A5A7A94C
:10030000ABADAFB1B3B5B7BABCBEC0C2C4C6C9CB42
:10031000CDCFD1D4D6D8DBDDDFE2E4E7E9EBEEF0F8
:10032000F3F5F8FAFDFF12034D006100630072005F
:100330006F007000610064000000160341006C0053
:10034000650078002000420069006E006F007300B5
:1003500000000403090409023B00020100A0FA099D
:1003600004000001030101000921110100012240E4
:10037000000705810308000A0904010001030000C9
:1003800000092111010001227B00070582032000E2
:100390000A12011001000000083412785600000112
:1003A00002000105010902A10185020901A1000560
:1003B0000919012908150025019508750181020513
:1003C00001093009311581257F95027508810609DB
:1003D000381581257F950175088106050C0A3802BC
:1003E0001581257F950175088106C0C0050109802A
:1003F000A101850319012AB700150126B70095014F
:1004000075108100C0050C0901A101850419012A9C
:10041000A002150126A002950175108100C00501FA
:100420000906A101050719E029E71500250195082E
:10043000750181029501750881010507190029FFE1
:10044000150026FF00950675088100050819012989
:1004500005950575019102950175039101C011245F
:100460001FBECFEFDAE0DEBFCDBF04B603FE27C06C
:100470008091780390917903A0917A03B0917B03E6
:100480008730904BA740B04BD1F410927803109274
:10049000790310927A0310927B0314BE84B7877F8E
:1004A00084BF0FB6F894A89580916000886180930E
:1004B0006000109260000FBEE0E0F8E3099511E0E3
:1004C000A0E0B1E0ECECF0E502C005900D92A43C98
:1004D000B107D9F723E0A4ECB1E001C01D92A83721
:1004E000B207E1F70E9487210C943C280C9400008D
:1004F00081E0089581E008950C947A0208950C94A7
:100500007E021F93CF93DF9300D000D00F92CDB720
:10051000DEB749835A836B833091910289819A8136
:1005200031111DC06623B9F02223A9F00E94B61C28
:10053000182F682F89819A810E94631C69817A81B2
:10054000812F0F900F900F900F900F90DF91CF9110
:100550001F910C9449030E948F1C182FEFCF0E940B
:10056000B61C69817A81EDCFFC01262F4081518133
:100570006281738184810C948102CF93DF93EC01BB
:1005800060E00E94B402BE01DF91CF910C947F0223
:100590000E946F050C9494050C94970508950E9491
:1005A000CD170E94CE022FEF84E39CE021508040C3
:1005B0009040E1F700C000000C94FD1F0F931F93C3
:1005C000CF93DF938C0161E00E94B402EC01B8018B
:1005D0000E947C028823D9F1B801CE010E94B0119B
:1005E0008823A9F1B801CE010E940212882379F173
:1005F000B801CE010E942513882349F1B801CE012C
:100600000E944B10882319F1F8018281882361F040
:10061000CB35FDE5DF0721F170F4C115ECE5DE0710
:10062000A1F0CF3DDC45C9F0C801DF91CF911F910A
:100630000F910C947802CC358DE5D807A1F0CD351B
:10064000DD4591F70E945D1DEFCF0E94CF0280E053
:10065000DF91CF911F910F9108950E94D61EF7CF81
:100660000E94661DE1CF0E94691DDECF08950C94A3
:10067000360381E008950C943903CF93C82F0E946C
:1006800037038C2FCF910C943B0390E080E00895CA
:100690000895E72FF0E096E0899FE00DF11D112409
:1006A000EE0FFF1FEE0FFF1FE60FF11DEE0FFF1FF6
:1006B000E455FF4F859194910895FC01EE0FFF1FC3
:1006C000E45FFE4F859194910895CF93DF930E944C
:1006D00049030E947A04EC01811520E5920708F095
:1006E00042C0811530E4930708F0BDC0883E9105F3
:1006F00028F5803E910508F09DC0883A910588F460
:10070000853A910508F08FC08130910509F492C0B7
:10071000009709F48FC0049708F08CC0D0E0C0E0C7
:1007200089C08F3B910508F489C0805C9109C03C69
:10073000D105A0F30E945D03EC017CC081159042BD
:1007400050F4C11581E0D80708F074C0CD3ED10542
:1007500028F3D0656FC0C11590E3D90708F079C0C0
:10076000CE019F70E7CF811525E5920758F58115D9
:1007700034E5930708F0A6C0811542E5940750F4CC
:10078000C11581E5D80708F471C0DC2FCC27C16FF3
:10079000D06A50C0982F969596959E012370332766
:1007A000C115D34508F07FC0C1E0D0E002C0CC0F36
:1007B000DD1F2A95E2F720E2929FC0011124C82B89
:1007C000D92B6FC0C11589E5D807A8F4C11598E5E4
:1007D000D90708F07CC0C11526E5D20708F09ECFE6
:1007E0008C2F0E941105C82FD0E0DC2FCC27CC27FE
:1007F000DF71D0621FC0C1153AE5D30708F46CC0A1
:10080000CE0190568115904208F088CF8D2F8F71C0
:100810000E94110590E0982F882788279F719C01DE
:100820002C2BE901E6CFC55AD0E0C65ADE4FC8816D
:10083000D0E0D064CE01DF91CF910895C85AD0E0C6
:10084000CC0FDD1FC45DDE4F0990D881C02DD4646C
:10085000F1CFCE019927D3FF03C0EC01D86CEACFCA
:10086000EC01D06CE7CFDF70D06AE4CFCE01E4E0DA
:1008700096958795EA95E1F783702C2F2695269516
:10088000237090E2299F90011124382B8C2F8370C4
:10089000C1E0D0E002C0CC0FDD1F8A95E2F7C22B89
:1008A000D32BDC68C7CFC1E0D0E002C0CC0FDD1F86
:1008B0002A95E2F730E2939FC0011124C82BD92B6F
:1008C000DA68B8CFD82FCC27C46FD06AB3CFDC2F6B
:1008D000CC27C06FD06AAECF8C2F8F700E941105CD
:1008E00034E0D695C7953A95E1F7CF709C2FEC018F
:1008F000D069A0CF82389105B1F1B0F48133910570
:1009000009F475C048F48932910509F469C08A3246
:10091000910509F473C008958533910509F459C010
:100920008933910501F10895833E9105A9F138F4C9
:10093000803E9105F9F0823E910549F10895863E89
:100940009105A9F1873E9105C9F1843E910519F5FC
:100950002091FB0221FF1FC08091FA0284FD14C088
:1009600087EE90E008952091FA022370A1F080EEC6
:1009700090E008952091FA0220FD47C03091FB02DB
:1009800030FF09C024FF44C090E080E004C0209103
:10099000FA0222FDF7CF08952091FA0222FD3BC012
:1009A0003091FB0230FDE3CF24FFF5CFEDCF209156
:1009B000FA0223FFF0CF24FDE7CFD2CF2091FA0235
:1009C00023FD2CC03091FB0231FFEECF84EE90E08E
:1009D00008952091FA0225FFDECF89E290E0089584
:1009E0002091FA0225FFD7CF85E390E0089520916A
:1009F000FA0226FFD0CF8AE290E008952091FA0211
:100A000026FFC9CF81E390E0089589E390E008953F
:100A100083EE90E0089582EE90E0089586EE90E0F7
:100A200008959091FA0292FF06C0282F287128306D
:100A3000F9F4877F846093FF06C0282F287128313E
:100A4000F1F4877E84612091FB0220FF06C0382FDD
:100A500038713830D9F4877F816021FF06C0282F94
:100A600028712831D1F4877E816194FD877E0895B5
:100A7000282F24712430F9F68B7F8860DCCF282F53
:100A80002471243101F78B7E8861DDCF382F3171DD
:100A9000313019F78E7F8860E0CF282F2171213106
:100AA00021F78E7E8861E1CF0C942B1E0E94ED050C
:100AB0002FEF86E791E0215080409040E1F700C0A1
:100AC00000000E94ED0580E00E94990580FF04C0AF
:100AD0000E9454050C94FD1F08950C9456050E9425
:100AE000311E811102C00E94D61E0E943C1E8093BE
:100AF000EE020E94441E9093FB028093FA020E9431
:100B00006D050E94401E682F70E090E080E00E941A
:100B1000651B6091D9027091DA028091DB0290919D
:100B2000DC020C949F1B08950C94930508950C947B
:100B30009605E82FF0E0EE5FFC4F80810895089560
:100B400080EA8A95F1F7089500C008950C94A005F5
:100B5000F894E82FE295EF70F0E031A1282F2F7084
:100B600081E090E001C0880F2A95EAF7982F9095D0
:100B7000932391A392A1892B82A37894089581E96C
:100B80000E94A80582E90E94A80583E90E94A805A1
:100B900085E90E94A80584E90E94A80587E90E94CA
:100BA000A80580E30E94A80587E30E94A80580E9C4
:100BB0000E94A80584E30E94A805ECEFF2E0A2E001
:100BC000B3E082E093E011921D928E179F07D9F750
:100BD00086E00E9464060C94C802CF92DF92EF92E6
:100BE000FF920F931F93CF93DF93C1E6D1E00CEFF9
:100BF00012E0D12CEE24E394F12C8991F894E82FA3
:100C0000E295EF70F0E021A18F70A70102C0440FC0
:100C1000551F8A95E2F7CA01922F982B91A392A1B2
:100C20008095892382A378940E94A405EDE5F1E0E4
:100C300030E020E0C12C4191A42FA295AF70B0E02C
:100C400090968C9190E04F7002C0959587954A954B
:100C5000E2F780FD35C08E2D022E01C0880F0A9468
:100C6000EAF7C82A2F5F3F4F2430310521F7FE01F4
:100C7000319780810E94A8050E94A605F801808115
:100C8000C81601F1C08281E0D82A0F5F1F4FF1E042
:100C9000C736DF0709F0B1CF2D2D46E062E073E0E3
:100CA0008CEF92E00E9465060E94CC028D2DDF91B0
:100CB000CF911F910F91FF90EF90DF90CF9008950B
:100CC00080E0CFCF80E0E0CF0895FF920F931F9395
:100CD000CF93DF93F82E092F162FD72FC42F22235F
:100CE00049F081E08093C8010E94B21F9093C70130
:100CF0008093C6018091C8018823A1F08091C6012C
:100D00009091C7010E94CA1F069760F0EF2DF02F47
:100D1000A12FBD2FCE0FDF2FD11DEC17FD0741F402
:100D20001092C801DF91CF911F910F91FF9008950C
:100D300081918D93F2CF8091CF0180FF12C060919D
:100D4000090185E0689FB001112475956795759537
:100D5000679560387105A8F561157105A1F1862FB9
:100D6000089581FF09C06091090185E0689FB00185
:100D7000112475956795EDCF6091090182FD0AC038
:100D80008091CE018823D1F09091080160910901F2
:100D9000891728F085E0689FB0011124DACF869F7B
:100DA000B001112485E0869F9001879F300D1124AA
:100DB000692F70E0C9010E94FF26CBCF65E070E08B
:100DC000CECF8FE7089581E008958091CF0180FF15
:100DD0000CC06091050170E07595679575956795F4
:100DE0006115710549F1862F089581FF06C0609154
:100DF000050170E075956795F3CF6091050182FD5F
:100E00000BC09091CD019923A1F0609104018091D4
:100E10000501961738F0682F70E06038710500F30F
:100E20008FE70895899FC001112470E00E94FF267A
:100E3000F4CF61E070E0D7CF81E008958D3E31F4CA
:100E40000E949B0681958093D30108958E3E19F4EC
:100E50000E949B06F8CF8F3E31F40E949B0681953D
:100E60008093D2010895803F19F40E949B06F8CF29
:100E7000893F29F40E94E5068093D40108958A3FB2
:100E800021F40E94E5068195F7CF8B3F31F40E9453
:100E9000E50681958093D50108958C3F19F40E9451
:100EA000E506F8CF9FE0980F983070F4815F990BBA
:100EB00021E030E001C0220F8A95EAF78091D1014C
:100EC000822B8093D10108958D3F31F48091CF0121
:100ED00081608093CF0108958E3F21F48091CF01EE
:100EE0008260F7CF8F3FB9F78091CF018460F1CF57
:100EF0004091D2018D3E59F48091D30187FF0DC0FE
:100F00001092D30141110BC01092CE0108C08E3E49
:100F100081F48091D30118169CF3442381F08091D1
:100F2000D4019091D501892B09F05AC01092CD01BE
:100F300008958F3E49F447FFF0CF1092D20180917F
:100F4000D3018111ECCFE0CF803F19F41416ACF33C
:100F5000E4CF9091D401893F29F41916F4F6109248
:100F6000D401DBCF8A3F19F497FFD7CFF8CF909108
:100F7000D5018B3F29F497FFD0CF1092D501CDCF6B
:100F80008C3F19F41916CCF3C8CF9FE0980F983016
:100F900090F4815F990B21E030E0B90102C0660F47
:100FA000771F8A95E2F7CB0180959091D101892333
:100FB0008093D101B2CF8D3F31F48091CF018E7FEC
:100FC0008093CF01AACF8E3F21F48091CF018D7FF6
:100FD000F7CF8F3F09F0A1CF8091CF018B7FF0CF6A
:100FE00008950E94B21F9C019091D2018091D3017B
:100FF000982B21F03093CC012093CB019091D40118
:101000008091D501982B21F03093CA012093C9011A
:1010100080ED91E00C946B13EF92FF920F931F936E
:10102000CF93DF9300D000D000D0CDB7DEB786E0FD
:10103000E0EDF1E0DE01119601900D928A95E1F765
:10104000E090D201F090D3010091D4011091D5012C
:101050001092D2011092D3011092D4011092D501B6
:101060008E2D8F2991F08091CB019091CC010E941F
:10107000CA1FAC019091CE01992309F43FC0809121
:101080000A018417150608F447C0802F812B91F0C0
:101090008091C9019091CA010E94CA1FAC01909130
:1010A000CD01992309F477C08091060184171506B4
:1010B00008F47FC08091D2019091D301892B909147
:1010C000D401892B9091D501892B11F00E94F10751
:1010D00086E0FE013196A0EDB1E001900D928A9577
:1010E000E1F726960FB6F894DEBF0FBECDBFDF91B5
:1010F000CF911F910F91FF90EF90089520910B01D8
:101100008AE0289F900111242417350708F0BDCFED
:101110009F5F9093CE0102C09F3FD1F7EE2059F020
:101120000E949B069FEF1E140CF491E0899F802D76
:1011300011248093D201FF2059F00E949B069FEF5B
:101140001F140CF491E0899F802D11248093D3010A
:101150003091D201332309F498CF2091D301222377
:1011600009F493CF45EB3403C0011124992359F0BE
:101170009093D20145EB240390011124332339F0DD
:101180003093D30182CF81E08093D201F3CF81E00D
:101190008093D3017ACF209107018AE0289F9001A4
:1011A00011242417350708F085CF9F5F9093CD0158
:1011B00002C09F3FD1F7002359F00E94E5069FEF40
:1011C00010160CF491E0899F802D11248093D40196
:1011D000112359F00E94E5069FEF11160CF491E0DF
:1011E000899F802D11248093D5013091D401332320
:1011F00009F460CF2091D501222309F45BCF45EBA0
:101200003403C0011124992359F09093D40145EB84
:10121000240390011124332339F03093D5014ACFB0
:1012200081E08093D401F3CF81E08093D50142CF58
:1012300086E0E0EDF1E0DF011D928A95E9F710927A
:10124000CE011092CD011092CF010895EF92FF923E
:101250000F931F93CF93DF93EB01E82FD11110C0B1
:10126000442321F0F0E0EA5DFD4FE4916E2F7E2FE4
:101270008E2FDF91CF911F910F91FF90EF900895E6
:101280000D2F10E0282F30E0442329F02A5D3D4F38
:10129000F901249130E0F6E0CF9FC0011124EFEF77
:1012A000F0E0BF010E94EB26AB018C2F90E0880F8D
:1012B000991FA5E5A49FB001A59F700D1124861B61
:1012C000970B982F990F980FBF01601B710B629FAE
:1012D000D001639FB00D729FB00D11248B2F9D9F85
:1012E000B0011124672F7727EF01C61BD70BBE0172
:1012F000629FE001639FD00D729FD00D11247F018A
:10130000E91AF108E09EB001E19E700DF09E700DAB
:101310001124672F7727E61BF70BE29F8001E39FDD
:10132000100DF29F100D1124E12F722F4230510544
:1013300099F048F44115510569F04130510581F0AB
:10134000EB2F8D2F07C04430510569F080F04630F7
:101350005105B1F76E2F8DCFE22F7B2F812FFACF62
:10136000E22F7D2FF7CFEB2F822F712FF3CF7B2F23
:10137000822FED2FEFCF41E00C94260908950C94B5
:10138000BB09CF93DF93762FE901682F842F0E944A
:10139000BF09798368838A83DF91CF9108954138AB
:1013A00008F040E80C94C10980910803982F9E7FB3
:1013B00061F4817082608093080380910B0381380F
:1013C00018F080E880930B0308958635B0F38170A0
:1013D0008465F1CF88E090E00C94DD27CF92DF9216
:1013E000EF92FF926B017C010E94D409B701A60124
:1013F00088E090E0FF90EF90DF90CF900C94FB2777
:10140000E8E0F3E087E4808385E581838FEF8283E2
:1014100080E88383148260817181828193810C943E
:10142000EE098091080380FF02C08695089580E050
:10143000089590910C03933018F49F5F90930C03E0
:10144000882351F0609108037091090380910A0389
:1014500090910B030C94EE09089581E00C94190A05
:1014600090910C03992319F0915090930C038823C9
:1014700051F0609108037091090380910A039091E3
:101480000B030C94EE09089581E00C94300A70E08F
:101490000C941811609110018091080380FF0AC01C
:1014A00080910F0123E0829FC0011124835F9C4F34
:1014B0000C94470A809111019091120123E0829FC0
:1014C000F0011124E35FFC4F891750F7118210825D
:1014D00012828F5F3396F8CF9091080390FF14C06B
:1014E000909111012091120133E0939FF00111249A
:1014F000E35FFC4F921710F00C944A0A81836083DB
:1015000042839F5F3396F6CF0895CF93DF9300D049
:101510000F92CDB7DEB79091080390FF0AC09E01ED
:101520002F5F3F4F0E94CF094B8169818A810E94C2
:101530006C0A0F900F900F90DF91CF910895CF9389
:10154000DF93EC01EC81F0E0EF5DFE4F4491E8E0C9
:10155000F3E0628181810E94850A8C818F5F8C8398
:10156000DF91CF910895CF93DF93EC01E8E0F3E0B2
:10157000438162818C810E94850A8C818F5F8C837C
:10158000DF91CF9108950F931F93CF93DF9300D0F6
:101590000F92CDB7DEB78C018091D60181110AC0C0
:1015A0009E012F5F3F4F40E86FEF0E94CF098A8175
:1015B0008093D601F8016481613069F08091D60191
:1015C00040E0662361F040E0623011F44091D601C2
:1015D00080E060E004C06091D60140E080E00E94BD
:1015E0006C0AF801848190E0019663E070E00E944B
:1015F000FF2684830F900F900F90DF91CF911F9162
:101600000F910895AF92BF92CF92DF92EF92FF9227
:101610000F931F93CF93DF9300D00F92CDB7DEB718
:10162000182FF62E042FE22E9091080390FF29C068
:10163000E92FE695AE2FB0E0A959BE4F8C9180936B
:1016400076029E7F923059F59E012F5F3F4F812F8A
:101650000E94CF094B8169818A810E946C0A109394
:101660000903F0920A0300930B03EE2051F06091FE
:1016700008037091090380910A0390910B030E9463
:10168000EE090F900F900F90DF91CF911F910F9166
:10169000FF90EF90DF90CF90BF90AF900895823091
:1016A00019F400910B03DBCF863019F41091090374
:1016B000D6CF8930D9F3893191F6E9518E2F8170D7
:1016C000D82EE695F0E0EF5DFD4FA590B490C12CCB
:1016D000BB2460911301C61618F00E944A0ABFCFBE
:1016E0002C2D30E0A29EC001A39E900DB29E900DC5
:1016F000112470E00E94EB26812FD11013C0860FB9
:1017000040911101420F532F511D9A01220F331F97
:10171000240F351F235F3C4F402F6F2D0E94CF09B0
:10172000C394D7CF861BECCFE8E0F3E09181282F5C
:101730004381628188E0890F0C94020B81E00C9454
:10174000940BE8E0F3E09181282F4381628188EFD8
:10175000890F0C94020B81E00C94A10BE8E0F3E0FC
:10176000628128E0620F08F46FEF282F43818181A6
:101770000C94020B81E00C94AE0BE8E0F3E0628184
:1017800028E0621B08F460E0282F438181810C94DB
:10179000020B81E00C94BD0BE8E0F3E0438128E00C
:1017A000420F08F44FEF282F628181810C94020BC5
:1017B00081E00C94CC0BE8E0F3E0438128E0421B8D
:1017C00008F440E0282F628181810C94020B81E0B3
:1017D0000C94DB0B20E00C94020BEF92FF921F9312
:1017E000CF93DF93EC0110E0EE24EA94F12C6091AA
:1017F0001301161770F00E944A0A9A818C8190FF9B
:1018000027C08F5F8C83DF91CF911F91FF90EF9066
:10181000089520911101422F410F5527551FCA01EC
:101820009A01220F331F280F391F235F3C4F70E0AE
:10183000C7010E94FF26962F8C8140910B03609177
:101840000A03199F800D11240E94CF091F5FCFCF7B
:101850008150D8CFAF92BF92CF92DF92EF92FF929A
:101860000F931F93CF93DF93FC0182810FEF80FFD3
:1018700001E010E04EE1A42E809113011817C8F08A
:101880000E944A0A8091D801013009F055C08111A7
:1018900002C08091130181508093D801DF91CF91D4
:1018A0001F910F91FF90EF90DF90CF90BF90AF907E
:1018B0000895C0911101C12ED12CCC0DDD2DD11D6B
:1018C000CE01880F991FC80FD91FC35FDC4F198243
:1018D00018821A8234E0E32EF12CB12C8091D801C9
:1018E0008B0D8F311CF16A2D0E94DD26892F082E69
:1018F000000C990BC816D90691F480910B038E9DAC
:10190000A0018F9D500D11245595479555954795EC
:101910009E0160910A03809109030E94CF09B00ED5
:10192000F1E0EF1AF108D1F61F5FA6CF87FFDFCFF6
:1019300090911301890FDBCF90E001966091130124
:1019400070E00E94FF26A8CF0F931F93CF93DF93E1
:10195000809111019091120123E0829FF0011124E6
:10196000E35FFC4F891740F1C0E0D3E060911301C1
:10197000C61740F10E944A0A20910D018091D701BB
:10198000820F8093D70190910E01920F90930E01D8
:10199000191654F4082E000C990B40911301415074
:1019A000550B841795071CF0219520930D01DF91AD
:1019B000CF911F910F9108951182108212828F5F33
:1019C0003396D0CF0C2F10E070E0C8010E94FF26A4
:1019D00020911101820F482F50E02091D701022E53
:1019E000000C330B02171307BCF020910E01022EDE
:1019F000000C330B201731077CF08D9F90011124D0
:101A0000235F3C4F40910B0360910A0380910903CF
:101A10000E94CF09CF5FAACFFA01EE0FFF1FE40F9C
:101A2000F51FE35FFC4F118210821282F3CF8F9279
:101A30009F92AF92BF92CF92DF92EF92FF920F935D
:101A40001F93CF93DF93EC014C81042F10E098019A
:101A5000D8010E9443279B01AC010E9459274B01EA
:101A60005C01E0E2F0E0E01BF10BA5E5B0E0AC01C9
:101A70009B010E9459276B017C019F01DF010E949D
:101A80003B279B01AC010E9464279B01AC01280D00
:101A9000391D4A1D5B1DC701B6010E941327F22E96
:101AA000822F90E039E23F1560F143E0249F9001DE
:101AB000112435952795122F109500E085E5E82E25
:101AC000EF1880911301081758F10E944A0A9C816F
:101AD00081E0992319F0903219F48FEF80930C0173
:101AE00080910C01890F8C83DF91CF911F910F9111
:101AF000FF90EF90DF90CF90BF90AF909F908F902E
:101B0000089525E530E0B901681B790B9B01220F90
:101B1000331F260F371F37FFCCCF2F5F3F4FC9CF63
:101B20008E2D01FD8F2D20911101622F600F7727DF
:101B3000771F9B01220F331F260F371F235F3C4F58
:101B4000412F60910A030E94CF090F5FBACF0F9314
:101B50001F93CF93DF93EC0110E000E0909113010D
:101B60009017110609F06CF40E944A0A8C8190E0EB
:101B70000196817099278C83DF91CF911F910F91EE
:101B8000089520911101A801420F511D9A01220FC1
:101B9000331F240F351F235F3C4F4C8160910A0394
:101BA0008091090396959017110651F04CF044234B
:101BB00049F040910B030E94CF090F5F1F4FCECF1A
:101BC0004423B9F340E0F7CF4F925F926F927F9238
:101BD0008F929F92AF92BF92CF92DF92EF92FF923D
:101BE0000F931F93CF93DF93FC016280448081E0C9
:101BF0008483E1E2F1E07490E0EAF1E0E491812C89
:101C000075E0972EF2E0CF2EDD24D394AA24AA9477
:101C1000B12C55245A94E7190E2F10E0809113012E
:101C2000881690F0DF91CF911F910F91FF90EF9068
:101C3000DF90CF90BF90AF909F908F907F906F90EC
:101C40005F904F900C944A0AE82CF12C82E08615A4
:101C500068F09E9CF0019F9CF00D1124E752FE4F0E
:101C600080910903808380910A038183411023C0FE
:101C70009E9CF0019F9CF00D1124E752FE4F1382B1
:101C8000128220911101C701820F911D9C01220F28
:101C9000331F280F391F235F3C4F9E9CF0019F9CF0
:101CA000F00D1124E752FE4F4281618180810E9434
:101CB000CF098394B3CF9E9CE0019F9CD00D11244B
:101CC000C752DE4F8B818823E9F081508B83859D3D
:101CD000C00111246C8170E00E94EB26FB01FF27FC
:101CE000EF5DFE4F8491E82FE719E59DC0011124B7
:101CF000B8010E94EB2680910B03689FB00111246C
:101D00007A83BFCF0E94B82720910B0326952158D4
:101D10002C9DA0012D9D500D1124452F5527841772
:101D200095070CF0AECF82E0861588F40E94B827A4
:101D3000B5010E94FF2688830E94B82720910A03DC
:101D40002695622F70E00E94FF26280F29839E9C13
:101D5000F0019F9CF00D1124E752FE4F12828091FA
:101D60000B03893C58F088EC9E9CF0019F9CF00D81
:101D70001124E752FE4F8483838383CF8431A0F7FD
:101D800084E1F2CFE8E0F3E080818E7F80836081A0
:101D90007181828193810E94EE09109277022FEF68
:101DA00080E792E0215080409040E1F700C00000C1
:101DB0000C944A0A60910803669570E04BE050E08D
:101DC00084E191E00E94C827892B19F481E0809377
:101DD00077020E94B21F9093700280936F02089561
:101DE0009091080390FF35C09170811128C09260D6
:101DF00090930803662351F06091080370910903E2
:101E000080910A0390910B030E94EE0960910803F0
:101E1000669570E04BE050E084E191E00E94C827B5
:101E2000892BA1F01092770281E080937202409199
:101E30000B0360910A03809109030C94EA0B8B3227
:101E400010F09465D5CF880F982BD2CF0E94DA0E70
:101E5000EBCF0895682F90910803969581E0890F44
:101E60008B3208F081E00C94F00E81E00C942A0F84
:101E7000682F9091080396958FEF890F09F48AE2F5
:101E80000C94F00E81E00C94380F61E00C94F00E8D
:101E9000E8E0F3E080818160808386950C94450FB3
:101EA0008091080380FD0C94C20E0C94480F60E0F2
:101EB0000C94F00E8091750281112EC00E94311E8B
:101EC000811104C00E94D61E0E94000A0E94EA09E5
:101ED000609308037093090380930A0390930B03A4
:101EE0006E7F61F40E94000A0E94EA096093080371
:101EF0007093090380930A0390930B030E94D40903
:101F0000109277028091080380FF03C086950E949B
:101F1000570F81E08093750208950F931F93CF931D
:101F2000DF9380917702882309F496C0809176022E
:101F3000E0910803E695E81BE0937102823091F589
:101F4000F0E0E35EFE4FE491CE2FD0E00FE91AE01F
:101F500080917202882361F0109272020E94B21F77
:101F60009093700280936F02109274021092730229
:101F70000E94B21FE0916F02F09170028E1B9F0BC6
:101F80008F3F9F4708F068C0EC0FFD1FF093700271
:101F9000E0936F028FE692E0F801DF91CF911F91FD
:101FA0000F910994863049F4F0E0E65EFE4FE4912B
:101FB000CE2FD0E003EB1AE0CBCF893051F4E69579
:101FC000F0E0E95EFE4FE491CE2FD0E00DEE1BE095
:101FD000BFCF8F3051F4E695F0E0EC5EFE4FE49118
:101FE000CE2FD0E00AE21CE0B3CF853149F4F0E017
:101FF000EF5EFE4FE491CE2FD0E004EA1CE0A8CFC4
:10200000C8E2D0E007E11DE0883109F4A1CF8332B6
:1020100039F4EFE0F1E0C591D49103EC1AE098CFE8
:10202000C4EFD1E007EA1DE0843209F491CFC0ED9E
:10203000D7E00EEB19E0853209F08ACF8E2F63E0EE
:102040000E94D126E92FF0E0E45FFE4FE491CE2F0D
:10205000D0E004EE1DE07CCFDF91CF911F910F9176
:102060000895FA01811101C0FB010994CF93DF9318
:10207000C82FD62F0E94110A8C1740F00E94110A17
:102080008D1720F4DF91CF910C94350F8C2FDF91B9
:10209000CF910C94450F1F93CF93DF93EC01FB017D
:1020A0001281112309F4C2C00E946C1D8272CD3CC2
:1020B000FCE5DF0709F4A0C008F044C0C73CECE52C
:1020C000DE0709F485C0F0F4C43C9CE5D90709F4A7
:1020D00075C048F4C33CDC4509F46CC0812FDF9126
:1020E000CF911F910895C53C9CE5D90709F46BC0B9
:1020F0004BEA5BE06EE97BE0C63CDC4579F70E9489
:1021000031105AC0CA3CFCE5DF0709F46BC068F423
:10211000C83CECE5DE0709F460C04AEB5BE069EC23
:102120007BE0C93CDC4559F3D9CFCB3C9CE5D907D2
:1021300009F45DC044E45AE06DE27AE0CC3CDC4551
:10214000F1F2CCCFC23DFCE5DF0709F464C098F49E
:10215000CF3C9CE5D90709F458C008F452C0C03DF3
:10216000FCE5DF0709F454C0C13DDC4509F0B6CFFA
:102170006EE089E01CC0C53D9CE5D90709F451C05B
:1021800058F4C33DFCE5DF0709F448C0C43DDC4515
:1021900009F0A4CF88E136C0C63D9CE5D90709F413
:1021A00043C06AE285E2CE35DD4509F097CF0E9453
:1021B000361002C00E94500F10E090CF42E45FE062
:1021C00065E37FE09CCF45E35FE062E47FE097CF8B
:1021D0004EE95BE06BEA7BE092CF49EC5BE06AEBB7
:1021E0007BE08DCF47EE5BE068ED7BE088CF48ED8C
:1021F0005BE067EE7BE083CF4DE25AE064E47AE097
:102200007ECF81E00E94450FD7CF65E082E0CFCF3F
:1022100068E086E0CCCF64E18FE0C9CF67E185E17B
:10222000C6CF62E289E1C3CF83E2ECCF11E056CFA3
:10223000819A41B34D7F51B35260EFB7F8949B013F
:10224000220F331F260F371F280F391F2817390772
:1022500041F4EFBF8FE594E00197F1F700C0000073
:102260000895DC016D91CD0178E051BB000000C004
:1022700067FF41BB660F000000C000C000C041BB4B
:1022800000C07A9591F7E2CF0F931F93CF93DF931E
:10229000C42FD22FFC0182818823C9F040937A0297
:1022A0000E94B21F909379028093780280E28C0F93
:1022B000883008F050C0C77081E001C0880FCA950F
:1022C000EAF7DF91CF911F910F910C945415109163
:1022D0007A02141335C080917802909179020E949D
:1022E000CA1F883C910560F5C0E2CD0F1D17B9F0FB
:1022F00080E2810F883040F4177081E001C0880FC0
:102300001A95EAF70E945B15C83048F481E09D2FCA
:10231000977001C0880F9A95EAF70E945415802F94
:102320000E944C15C830B8F4D77081E001C0880F06
:10233000DA95EAF7DF91CF911F910F910C945B151D
:1023400080E28C0F883038F4C77081E001C0880FBC
:10235000CA95EAF7EFCFDF91CF911F910F910895C2
:102360000F939C01CB01243F4CE5340759F1A8F4AD
:10237000293DFCE53F0701F12A3D4CE53407D1F149
:10238000283D3C4591F406E221EE41EE68ED7CE506
:102390000E94441180E00F910895263FFCE53F071D
:1023A000E9F0B0F0273F3C45F9F0FC018281882339
:1023B00039F110927A02EFCF07E225EE45EE69ED92
:1023C0007CE5E6CF06E221EE40EE64EF7CE5E0CF6F
:1023D00007E225EE44EE65EF7CE5DACF06E221EE7A
:1023E00042EE66EF7CE5D4CF07E225EE46EE67EFDE
:1023F0007CE5CECF08E221E045EE6AED7CE5C8CF72
:1024000081E0C9CFCF93DF93EC01FB018281882368
:1024100009F419C1C230FCE5DF07C0F1C6319CE503
:10242000D90730F09E012B5F3C452930310570F50E
:102430000E94441E9093FB028093FA02C031ECE5A7
:10244000DE0709F4CFC008F05BC0C8308CE5D807C0
:1024500009F4B6C088F5C430ECE5DE0709F4A8C07D
:10246000C0F4C2308CE5D80709F49CC08091FA0210
:102470008260C330DC4509F498C08091FA029091E3
:10248000FB020E94521E0E94CD1780E0DF91CF9187
:1024900008958091FA028061C630ECE5DE0709F408
:1024A00084C08091FA028860C730DC4508F47DC0A2
:1024B0008091FA02806279C0CC308CE5D80709F4AB
:1024C00089C070F48091FA028C60CA30ECE5DE07B6
:1024D00009F46BC008F478C08091FA028E7F65C061
:1024E000CE308CE5D80709F479C08091FA028B7F51
:1024F000CF30DC4508F459C08091FA028F7E55C078
:10250000CC3FECE5DE0709F457C030F5C3318CE56C
:10251000D80709F46FC078F4C131ECE5DE0709F49F
:1025200065C0C231DC4509F0A8CF0E94CD1780916B
:10253000FA028F773AC0C5318CE5D80709F462C03A
:1025400008F476C08091FB028160CB3FDC4509F046
:1025500094CF8093FB0291CFC115FDE5DF0709F40D
:102560004DC088F48091FB028D7FCE3F9CE5D9075A
:1025700081F38091FB028E7FCF3FDC4550F3809149
:10258000FB028360E6CFC230FDE5DF0709F459C0E6
:1025900008F444C080E0C330DD4509F06ECF0E94EE
:1025A000D81E6BCF8091FA0281608093FA0265CFCA
:1025B0008091FA028460F9CF8091FB028260C9CFDA
:1025C0008091FA028064F1CF0E94CD178091FA02C7
:1025D0008068EBCF8091FA028D7FE7CF8091FA027D
:1025E000877FE3CF8091FA028F7DDFCF8091FA025F
:1025F0008F7BDBCF8091FA02837FD7CF8091FB0264
:102600008C7FA7CF8091FA0282FB992790F921E075
:10261000922790FB82F990FB83F9C7CF8091FB0250
:10262000982F909591708E7F892B90FB81F991CF97
:102630000E94CD179091FA02892F97FB87F9805855
:10264000B4CF81E0ACCF81E021CFCF93DF93EB011A
:1026500086319C4511F50E946C1D9A81992399F051
:102660008A7A91E009F490E090937B02811109C08D
:1026700089E20E94261D0E94BC1D80E0DF91CF915F
:10268000089585E3F6CF80917B02811104C089E231
:102690000E942D1DF0CF85E3FBCF81E0EFCF90931B
:1026A0008102809380020895E0918002F09181027E
:1026B000309721F00190F081E02D099480E0089599
:1026C000E0918002F0918102309721F00280F38145
:1026D000E02D09940895E0918002F09181023097F5
:1026E00039F022E0DC012C930480F581E02D09947F
:1026F000089520917E0230917F022817390771F0EA
:1027000090937F0280937E02E0918002F09181029B
:10271000309721F00680F781E02D099408952091EB
:102720007C0230917D022817390771F090937D0269
:1027300080937C02E0918002F0918102309721F039
:102740000084F185E02D099408950E94BE1F6093D6
:102750008D0270938E0280938F029093900260930B
:10276000890270938A0280938B0290938C02089561
:1027700085B7806885BF85B7806885BF089508954F
:1027800008950C94BF1308950C94C3130E94B813BA
:1027900089E29EE10E9421200E94C0130C94C11383
:1027A00081E008950C94D013089508950E94D413E5
:1027B0000C94D5130E94A91F0E94BF050E945A0FB6
:1027C0000C94C413AF92BF92CF92DF92EF92FF921C
:1027D0000F931F93CF93DF93CDB7DEB72A970FB632
:1027E000F894DEBF0FBECDBF0E94ED0581110E949F
:1027F000A51383E8A82E82E0B82E10E000E0C02EDA
:10280000802F0E949905E82EF501F1905F01F816DE
:1028100009F44FC08091EE0281FD0E949F058F2D2B
:102820008E25D12CFF24F394982F9F21E9F10E944B
:10283000D213882399F0DE82CF82EF2081E009F461
:1028400080E088870E94B21F8160782F9A878987ED
:102850004E815F8168858A850E948114F801ED5759
:10286000FD4F8081F826F0820E948D0F0E940C0897
:102870000E94541390918202891791F10E9454137F
:10288000809382022A960FB6F894DEBF0FBECDBFAA
:10289000DF91CF911F910F91FF90EF90DF90CF903C
:1028A000BF90AF900C943D03D394FF0CF4E0DF1283
:1028B000BBCF0F5F1F4F0630110509F0A0CF8FEF80
:1028C00089838A831B820E94B21F8160782F9D8337
:1028D0008C8349815A816B818D810E948114C4CF80
:1028E0002A960FB6F894DEBF0FBECDBFDF91CF9111
:1028F0001F910F91FF90EF90DF90CF90BF90AF901E
:102900000895DF92EF92FF920F931F93CF93DF937F
:10291000CDB7DEB72B970FB6F894DEBF0FBECDBF95
:102920007A878B87F42E052F162FE72ED82E61116C
:102930000E948C1D1E821D827E2DEC82DD824F2D19
:10294000502F612F8D2D9E812B960FB6F894DEBFF0
:102950000FBECDBFDF91CF911F910F91FF90EF90F0
:10296000DF900C94431AFC01808191810C94F81C37
:10297000CF93C82F882309F447C08CEF8C0F813A7E
:10298000A0F46C2F80911F01909120010E94EF1EF6
:10299000882329F08C2F0E942D1D0E94BC1D8C2F96
:1029A0000E94261DCF910C94BC1D80E28C0F8830B4
:1029B00048F4C77081E001C0880FCA95EAF70E9409
:1029C0006F1DF0CFEBE5EC0FE33040F4F0E0E054A6
:1029D000FE4F808190E0CF910C947913E8E5EC0FE5
:1029E000E73150F4F0E0EE0FFF1FEE56FE4F80810E
:1029F0009181CF910C948F13CD3E30F08C2F0E949B
:102A00001E07CF910C94F107CF910895882361F1AF
:102A10009CEF980F913A20F40E942D1D0C94BC1D40
:102A200090E2980F983050F4877091E001C0990FB0
:102A30008A95EAF7892F0E94751DF0CF9BE5980FC4
:102A4000933020F490E080E00C94791398E5980F8F
:102A5000973120F490E080E00C948F138D3E20F0AD
:102A60000E9478070C94F10708951F93CF93DF938A
:102A7000182FEB010E94B814209731F4812FDF91B9
:102A8000CF911F910C9406158FE99FE00197F1F704
:102A900000C000002197F0CF70E060E0893311F4AE
:102AA00060E570E00C943515882321F00E946F1DBD
:102AB0000C94BC1D0895882321F00E94751D0C9470
:102AC000BC1D0895BF92CF92DF92EF92FF920F93B9
:102AD0001F93CF93DF936C01D62FC72FFC01128178
:102AE000058102950F700E94441DE82E8823A1F0F5
:102AF000E12E112389F08C2F807F803429F080E231
:102B00008D0FE12C883040F082E00E940D1E0E9463
:102B1000441D91E0E82EE926BC2EB2949FE0B92234
:102B2000EB2DF0E0E25CF74D0C9435270C2F0F7085
:102B3000C07F11F00295007F1123A9F0002359F006
:102B400080E28D0F883010F0D11109C0802F0E94D3
:102B50006F1D0E94BC1D8D2F0E94B81414C0802FC1
:102B60000E947F1DF6CF8D2F0E940615002359F07D
:102B700080E28D0F883010F0D1112CC0802F0E9480
:102B8000751D0E94BC1D2B2D2850330B24303105A0
:102B900020F40E9454130E943D03EE2009F49EC1CC
:102BA0000E94401D80FD9AC1F60112820E943A1DCA
:102BB0000E94C71BC6010E948F170E943A1DDF9119
:102BC000CF911F910F91FF90EF90DF90CF90BF902A
:102BD0000C94E81B802F0E94851DD3CFFC2FFF7023
:102BE000FF2EC07FC03219F0F29480EFF822DD236F
:102BF00069F0D13049F1112391F1002351F1F6012F
:102C0000858180FFA8CF8F70858323C0112381F039
:102C1000011106C00E949F1D8F290E945415B3CF39
:102C20000130C1F70E949F1D8F290E94A51DABCFC7
:102C3000011106C00E94B21D8F2D0E945B15A3CF0B
:102C4000013009F4A0CFF6CF112329F0063008F0A7
:102C50009ACF8F2DE2CF053008F095CFEDCF00232E
:102C600059F3D93349F4FFEF27EE33E0F150204018
:102C70003040E1F700C000008D2F0E94061583CF81
:102C80008C2F86958695837069F0813009F07BCF13
:102C90008D2F9C2F9370111102C090E080E00E9454
:102CA0008F1371CF8D2F9C2F9370111102C090E064
:102CB00080E00E94791367CF8D2F112329F00E94A5
:102CC0001E070E94F1075FCF0E947807FACF8C2F72
:102CD000837009F041C0111156CF4D2F4295469592
:102CE0004770440F440F0D2F0F7010E030E020E0CC
:102CF000042E04C0000F111F221F331F0A94D2F7A5
:102D000060E070E0CB01D4FF0FC06FE070E080E0C6
:102D100090E004C0660F771F881F991F4A95D2F76D
:102D20006095709580959095C695C695C370602BFB
:102D3000712B822B932BC23049F058F4C13019F01B
:102D40000E94791B20CF0E94671B1DCF0E948B1B06
:102D50001ACF0E94651B17CF8695112311F08C2F77
:102D60008170882309F40FCF4D2F42954695477007
:102D7000440F440F0D2F0F7010E030E020E0042EC0
:102D800004C0000F111F221F331F0A94D2F760E006
:102D900070E0CB01D4FF0FC06FE070E080E090E006
:102DA00004C0660F771F881F991F4A95D2F7609558
:102DB000709580959095C695C695C370602B712BC4
:102DC000822B932BC23049F058F4C13019F00E9485
:102DD0003E1CD9CE0E942C1CD6CE0E94501CD3CEB5
:102DE0000E94A11BD0CECF70112329F08C2F0E94FE
:102DF000C71B8D2F12CF8D2F0E945B158C2F0E9429
:102E0000E81BC1CED23F89F160F4D03FC9F0D13F79
:102E100029F1112309F442C001119DCE8C2F8F712D
:102E200021C0D33F39F1D43FA1F7112369F1CF710C
:102E30008C2F0E94C71B63E08C2F0E94F21DA3CE33
:102E4000112341F0053008F09ECE8C2F8F710E9427
:102E50000B1C99CE063008F096CEF7CF8C2F8F71D1
:102E6000112369F20E94C71B8ECE8C2F8F71112304
:102E7000C9F3C5CF112329F08C2F8F710E94B21B8B
:102E800082CE0E94AD1B7FCE81E00E940D1E0230DB
:102E900008F479CE82E00E940D1E75CE002359F011
:102EA000D93309F0E9CE8FEF97EEE3E081509040FF
:102EB000E040E1F7DFCE8C2F8F71A1CF4C2F4F7008
:102EC0006D2FC6010E9445030E94DD1A5CCE4C2F77
:102ED0004F706D2FC6010E94480355CEDF91CF91F0
:102EE0001F910F91FF90EF90DF90CF90BF900895CA
:102EF0000F931F93CF93DF93EC01688179818A81CF
:102F00000E94021D8C010E94621C0E94641BB80179
:102F1000CE01DF91CF911F910F910C946215CF9349
:102F2000DF93EC018B819C81892B29F08881998129
:102F300089238F3F59F4DF91CF910895CE010E94EC
:102F40007817CE01DF91CF910C94BD02CE010E9483
:102F5000DE028111F3CF0E94441D882361F38A8130
:102F6000882349F382E0DF91CF910C940D1E90E00D
:102F700080E00E94791390E080E00E948F130E940D
:102F80008C1D0E949C1D0E94BC1D0E9418090C945F
:102F9000F1070E94341D0C94B7170E947C1D0C94FD
:102FA000C917E92FE295EF70E250EE3070F4F0E0CF
:102FB000E25BF74D0C943527803F19F020F4883EF2
:102FC00020F481E00895843FE1F380E00895883E95
:102FD000C0F3813FD1F7F5CF93FB882780F908959F
:102FE0000E94F81C0C94D117CF93DF9300D000D02F
:102FF0000F92CDB7DEB70F900F900F900F900F90FC
:10300000DF91CF910895CF93DF9300D000D000D00F
:10301000CDB7DEB726960FB6F894DEBF0FBECDBF94
:10302000DF91CF9108951F93CF93DF93C0919202C8
:1030300016E0809193028C1304C0DF91CF911F9111
:103040000895D0E01C9FF0011D9FF00D1124EC5657
:10305000FD4F4081518162817381848195810E94FD
:1030600003182196C770E5CF4091C4025091C50264
:103070006091C6027091C7028091C8029091C90206
:103080000C9403181F93CF93DF938091C902807F24
:10309000A9F48091C602882389F080919202C091A0
:1030A00093026091C4027091C502A091C702B091D1
:1030B000C802D62FD72316E0C81304C0DF91CF91E2
:1030C0001F91089590E0109711F0DF3F19F40196D9
:1030D0008770F2CF189F9001199F300D1124F901CC
:1030E000EC56FD4F41814713F2CF40814613EFCF9D
:1030F00042814111ECCF438154814A1B5B0B483C18
:10310000510528F78091C9028F7080618093C902B0
:10311000F901E756FD4F80818F708061808384ECD8
:1031200092E00E948F17DF91CF911F910C9413189A
:10313000AF92BF92CF92DF92EF92FF920F931F93C5
:10314000CF93DF93CDB7DEB761970FB6F894DEBFAC
:103150000FBECDBF8C0185E0F801DE011D96019008
:103160000D928A95E1F7F80140815181E28084EC6B
:10317000C82E82E0D82E6091C7027091C8026115F6
:10318000710509F461C19091C4022091C502892F93
:1031900082238F3F09F458C1A380B480F090C60207
:1031A000F501E61BF70BFF2009F4FCC08091C90272
:1031B000382F307FE83CF10508F0B2C0311179C0FA
:1031C000FE2C251323C0941321C0E1101FC08F7063
:1031D00080618093C9020E943418C6010E948F1733
:1031E0008091C902F80185838F2D61960FB6F894FE
:1031F000DEBF0FBECDBFDF91CF911F910F91FF902A
:10320000EF90DF90CF90BF90AF900895AB2829F05A
:10321000842F85238F3F09F033C180E0F82FF170B0
:10322000DF2E80FF3CC0809192022091930236E015
:10323000821315C04D875E878D859E850E94F81C80
:10324000292F22952F702230F0F0243018F59F702E
:10325000F1F0F8019581907FD1F4D12C1EC090E05F
:10326000389FF001399FF00D1124EC56FD4F61811C
:10327000651306C06081641303C062816E110FC0C4
:1032800001968770D5CF9F7011F0882331F3805E4F
:10329000883018F3C8010E948F17FD2CA5CFEE20AF
:1032A00009F4A2CF8091C90281608093C902F12CF8
:1032B0009BCF251306C0941304C0F801EE2009F437
:1032C0008DC04D875E878D859E850E94F01788236F
:1032D00019F1EE2009F18091C902803270F020913D
:1032E000C4023091C50238872F831986BB86AA860F
:1032F0008C87CE0107960E948F1786E0F801A4EC18
:10330000B2E001900D928A95E1F70E9442180E9466
:103310003418FF24F39468CFC8010E948F17F9CFA7
:10332000311113C07A2DB98AA88A6E2D89890E941D
:10333000F41784EC92E00E948F1786E0F601119258
:103340008A95E9F70E943418B2CF25130FC0941361
:103350000DC0E1100BC0F8018583C8010E948F17D2
:1033600086E0F60111928A95E9F73ECF4D875E8798
:103370008D859E850E94F017882371F2EE2061F200
:103380008091C902803208F4B8CF2091C4023091F4
:10339000C5023A8329831B82BD82AC828E83CE0113
:1033A0000196A9CFE83CF10508F041C0FE2CEE20C3
:1033B00009F4B2CF25132AC0941328C08091C90202
:1033C00080FD1BC0982F907FC1F0F8018583903F4E
:1033D00031F0982F907F905F8F70892B8583C80183
:1033E0000E948F1786E0F801A4ECB2E001900D92E4
:1033F0008A95E1F70E943418F7CE86E0F801A4EC34
:10340000B2E001900D928A95E1F7EECE4D875E878E
:103410008D859E850E94F01781116FCF8091C90222
:1034200081608093C902C8010E948F17DDCE7A2D7A
:10343000B98AA88A6E2D89890E94F41786E0F60160
:1034400011928A95E9F7D6CFEE2009F465CF4D8722
:103450005E878D859E850E94F017F82E882309F4DB
:103460005BCF86E0F801A4ECB2E001900D928A9562
:10347000E1F784EC92E00E94B3140E944218BACFA4
:1034800081E08E25CBCE1F93CF93DF93CDB7DEB7F0
:103490002C970FB6F894DEBF0FBECDBF4F83588771
:1034A00069877A878B879C87CE0107960E94981838
:1034B000882369F08A859B85892B39F04F8158854F
:1034C000842F85238F3F09F071C016E05FC086E02E
:1034D000FE013796DE01119601900D928A95E1F773
:1034E0008A859B85892B89F38F81988589238F3FD6
:1034F00061F32091930230E0C9010196877099270A
:10350000409192024817190671F40E94CD1710924B
:1035100093021092920286E0E4ECF2E0DF011D9249
:103520008A95E9F7D2CF96E0929FD001939FB00D94
:103530001124AC56BD4FFE01319601900D929A9523
:10354000E1F7809393020E941318BFCF819FC001BF
:1035500011248C569D4F0E9498188823E9F0E09121
:1035600092021E9FF0011124EC56FD4F40815181C3
:1035700062817381848195810E94031880919202F7
:1035800090E0019687709927809392028091920231
:10359000909193028913DACF2C960FB6F894DEBF80
:1035A0000FBECDBFDF91CF911F91089569857A85B8
:1035B0008B859C850E94031888CFEF92FF920F9312
:1035C0001F93CF93DF938C01892B81F0F12CEE2494
:1035D000E394E8012196F8018491843770F48430F3
:1035E00008F05FC08130B1F08230A1F1DF91CF915E
:1035F0001F910F91FF90EF900895853709F44CC00B
:1036000008F43DC09CE7980F903780F78F770E94B1
:10361000061549C00E5F1F4FFE01849190E2980F7E
:10362000983060F48770FE2D01C0FF0F8A95EAF78D
:103630008F2F0E948F1D0E94BC1D02C00E94B814D3
:103640008F2D815030F2EFE9FFE03197F1F700C0A4
:103650000000F7CF0E5F1F4FFE01849190E2980F9C
:10366000983050F48770FE2D01C0FF0F8A95EAF75D
:103670008F2F0E94951DDFCF0E940615E1CF0E5FB0
:103680001F4FFE01C491C150D8F28FE99FE001970E
:10369000F1F700C00000F7CF0E5F1F4FFE01F4905E
:1036A000CFCF0E94B8148E01CBCF08950C94551B38
:1036B0000E94561B6093DD027093DE028093DF024E
:1036C0009093E0020C94B71708950C94581B0F9335
:1036D0001F930091DD021091DE022091DF023091F4
:1036E000E002602B712B822B932B1F910F910C9476
:1036F000581B0F931F930091DD021091DE02209161
:10370000DF023091E00260237123822393231F9113
:103710000F910C94581B0F931F930091DD02109191
:10372000DE022091DF023091E002602771278227BC
:1037300093271F910F910C94581B0C94551B0C94BC
:103740009D1B0E949F1B6093D9027093DA028093A5
:10375000DB029093DC020C94B71760E070E0CB01C1
:103760000C94A11B0F931F9341E050E060E070E0C8
:103770008A019B0104C0000F111F221F331F8A956D
:10378000D2F7C901B8011F910F910C94A11B0F939F
:103790001F9341E050E060E070E004C0440F551F0B
:1037A000661F771F8A95D2F78091D9029091DA022D
:1037B000A091DB02B091DC028A019B01082B192B3E
:1037C0002A2B3B2BC901B8011F910F910C94A11B0F
:1037D0000F931F9341E050E060E070E004C0440F9D
:1037E000551F661F771F8A95D2F7CB01BA016095E6
:1037F0007095809590950091D9021091DA022091F0
:10380000DB023091DC0260237123822393231F911A
:103810000F910C94A11B0F931F9341E050E060E0C7
:1038200070E004C0440F551F661F771F8A95D2F7BA
:103830008091D9029091DA02A091DB02B091DC0272
:103840008A019B01082719272A273B27C901B801AC
:103850001F910F910C94A11B0F931F930091D902FC
:103860001091DA022091DB023091DC02602B712B87
:10387000822B932B1F910F910C94A11B0F931F93DD
:103880000091D9021091DA022091DB023091DC0222
:1038900060237123822393231F910F910C94A11B0A
:1038A0000F931F930091D9021091DA022091DB024D
:1038B0003091DC0260277127822793271F910F9197
:1038C0000C94A11B0895990F990F890F982F977049
:1038D00041E001C0440F9A95EAF786958695869552
:1038E00095E0899FF0011124E653FD4F30E020E080
:1038F00070E05191DF011197CB01022E02C0969525
:1039000087950A94E2F7817081958527842385271E
:103910008C932F5F3F4F2530310559F70895990F4C
:10392000990F890F982F977086958695869525E033
:10393000829FF0011124E653FD4F50E040E080E00B
:10394000219130E0092E02C0369527950A94E2F7BE
:1039500021703327042E01C0220F0A94EAF7822B2C
:103960004F5F5F4F4530510559F70895BF92CF9291
:10397000DF92EF92FF920F931F93CF93DF938C010F
:10398000C090D902D090DA02E090DB02F090DC0225
:103990008091DD029091DE02A091DF02B091E00201
:1039A000C82AD92AEA2AFB2ACFE1D0E0BC2ED701C7
:1039B000C6010C2E04C0B695A795979587950A94D5
:1039C000D2F780FD0EC0219788F7B12C8B2DDF91A7
:1039D000CF911F910F91FF90EF90DF90CF90BF900C
:1039E0000895B8018C2F0E946503019761F3EECF13
:1039F000CF93DF93EC010E94B61CBE01DF91CF9103
:103A00000C9465031F93CF93DF93EB019091910288
:103A1000992331F0CB01DF91CF911F910C94F81CC9
:103A2000882379F0CB010E94B61C182F682FCE0195
:103A30000E94631CBE01812FDF91CF911F910C94D6
:103A40006503CB010E948F1C182FF4CF682F809143
:103A50001F01909120010C94251F682F80911F0158
:103A6000909120010C94271F80911F0190912001BB
:103A70000C94291F8091E10285958595859508957F
:103A80008091E102877008959091E102977081E042
:103A900009F480E008959091FB0292FB222720F91F
:103AA000281751F080FB92F99093FB028091FA0263
:103AB0009091FB020C94521E08958091FB0282FBB0
:103AC000882780F991E089270C944B1D81E00C94A4
:103AD0004B1D80E00C944B1D8091ED020895909158
:103AE000ED02892B8093ED02089580959091ED026F
:103AF00098239093ED0208951092ED02089590910D
:103B0000EC02892B8093EC02089580959091EC0251
:103B100098239093EC0208951092EC0208959091EE
:103B2000EB02892B8093EB02089580959091EB0234
:103B300098239093EB0208951092EB0208958091E0
:103B4000E202089508950C94A21D9091FB0292FD4B
:103B500008C09091E202981721F08093E2020C9441
:103B6000A31D08958091E202882329F01092E202B9
:103B700080E00C94A31D0895E0911F01F0912001B5
:103B80008091ED028083E0911F01F09120018081FE
:103B90009091EC02892B8083E0911F01F09120012C
:103BA00080819091EB02892B80839091E20299238E
:103BB00081F0E0911F01F09120018081892B8083A9
:103BC00080911F01909120010E94DD1E81110E94B1
:103BD000B21D80911F01909120010C9460130895F3
:103BE0000C94EF1D9091FB0292FD10C098E0899F0C
:103BF00090011124622B6093E1020E94C71B809107
:103C0000E1028595859585950C94F01D0C94C71B54
:103C10001092E10280E00C94F01D9091E1028095F9
:103C200089238093E102282F277039F4282F082E4A
:103C3000000C330B9217130621F49091FB0292FFB4
:103C400007C08595859585950E94E81B0C94081EF4
:103C5000089580E008956FEF7FEF90E080E00C948E
:103C6000072890E080E00E94E32721E08A3E9E4FF3
:103C700009F020E0822F089582E090E00C94D5278F
:103C800083E090E00C94D527CF9384E090E00E94ED
:103C9000D527C82F82E290E00E94D527982F8C2F3D
:103CA000CF910895CF93C92F682F84E090E00E94B0
:103CB000E9276C2F82E290E0CF910C94E927AB01C9
:103CC000BC018FE090E00C94FB27AB01BC0183E1C9
:103CD00090E00C94FB2760E070E0CB010C94651E33
:103CE00060E070E0CB010E945F1E0C946B1E6AEED8
:103CF0007EEF90E080E00E94072860E082E090E0A4
:103D00000E94E92760E083E090E00E94E92710929A
:103D1000DD021092DE021092DF021092E00260E0FB
:103D200084E090E00E94E92760E082E290E00E9457
:103D3000E92760E085E090E00E94E92760E086E006
:103D400090E00E94E9276FEF87E090E00E94E9276A
:103D500040E050E0BA0188E090E00E94FB2760E07C
:103D60008DE090E00E94E92740E050E0BA0188E150
:103D700090E00E94FB2760E087E190E00E94E92745
:103D800040E050E0BA018CE190E00E94FB2770E037
:103D900060E080E290E00E94072840E050E0BA0135
:103DA00088E190E00E94FB270C94701E0C94771E13
:103DB000682F8EE090E00C94E9279C012E5F3F4F26
:103DC000AC01485F5F4F80E02417350709F4089580
:103DD000F90191919F019923B9F38F5FF5CF662384
:103DE00049F0FC01329608962191261729F0E81730
:103DF000F907D1F780E0089581E008959C01FC0166
:103E000032969FEF80E04191461751F09F3F19F4A1
:103E1000411101C0982F8F5F8630A9F79F3F09F4A9
:103E20000895290F311D97FD3A95F9016283089590
:103E3000FC01329608962191261303C0DF011197E9
:103E40001C92E817F907B9F708950C94FE1E0C941C
:103E5000181F029626E0FC0111922A95E9F70895B1
:103E6000089508950C94311F80916F03843049F1B7
:103E70000E94321F80E00E943D031092EF0288E111
:103E800090E020E40FB6F894A895809360000FBEF0
:103E90002093600083B7817F846083BF83B7816094
:103EA00083BF7894889583B78E7F83BF0FB6F894CD
:103EB000A8958091600088618093600010926000F6
:103EC0000FBE08950895CF930E94301F0E94ED0504
:103ED0000E94621FC0E08C2F0E949905811105C0CD
:103EE000CF5FC630C1F7CF91089581E0FCCF089530
:103EF0000C94771F0E94CD170E9454130E943D031B
:103F00000C94781F1F921FB61F9211248F939F93BA
:103F1000AF93BF938091EF02811113C0809167032B
:103F200090916803A0916903B0916A034196A11D25
:103F3000B11D8093670390936803A0936903B093C6
:103F40006A03BF91AF919F918F911F901FBE1F90E9
:103F5000189582E084BD93E095BD9AEF97BD80935C
:103F60006E0008952FB7F8948091670390916803CD
:103F7000A0916903B0916A032FBF08952FB7F894F9
:103F800060916703709168038091690390916A035F
:103F90002FBF08959C014FB7F894809167039091CB
:103FA0006803A0916903B0916A034FBF821B930B12
:103FB000089578941F921FB61F9211248F939F9398
:103FC000AF93BF938091670390916803A0916903B9
:103FD000B0916A030196A11DB11D80936703909370
:103FE0006803A0936903B0936A03BF91AF919F9157
:103FF0008F911F901FBE1F90189581E08093E00065
:1040000080E28093D8001092C9008FE19EE401976E
:10401000F1F700C0000087E090EBDC0180937803AB
:1040200090937903A0937A03B0937B0388E19CE09B
:104030000FB6F894A895809360000FBE909360002F
:10404000FFCF9093C5018093C40108958091F80239
:104050000895CF93DF9300D00F92CDB7DEB7909144
:104060006F03943019F589837B836A8382E08093A0
:10407000E9008FEF9091E800815095FD06C095ED25
:104080009A95F1F700008111F5CF8091E80085FF46
:104090000DC050E040E063E070E0CE0101960E9468
:1040A00040228091E8008E778093E8000F900F9077
:1040B0000F90DF91CF910895BC0184E00C942920EA
:1040C000BC0183E00C9429209C0182E08093E900EC
:1040D0009FEF8091E800915085FD06C085ED8A959F
:1040E000F1F700009111F5CF8091E80085FF0CC039
:1040F00050E040E066E070E0C9010E9440228091FB
:10410000E8008E778093E8000895CF93DF93EC0169
:1041100081E08093E9008FEF9091E800815095FD58
:1041200006C095ED9A95F1F700008111F5CF8091C9
:10413000E80085FF14C050E040E068E070E0CE0188
:104140000E9440228091E8008E778093E80088E00A
:10415000FE01A0EFB2E001900D928A95E1F7DF91A8
:10416000CF91089580916E03811109C00E94D023E0
:104170000E942D248091E20084608093E2000895E3
:1041800010926E03089508950895089542E061EC39
:1041900081E00E944C2342E261EC82E00C944C23CB
:1041A00080917103833009F45FC030F48130C1F134
:1041B000823009F49BC008958A3009F487C08B309F
:1041C00009F46DC0893009F04EC0809170038132CE
:1041D00009F049C08091740390917503029708F02B
:1041E00042C08091E800877F8093E8008091E800DA
:1041F00082FF35C09091F3008091F200029729F47C
:104200008091F1008B7F813021F48091F1008093C7
:10421000F8028091E8008B778093E8000C9480236B
:1042200080917003813AF9F48091E800877F809350
:10423000E8008091740390917503892B61F468E024
:1042400080EF92E070E00E948F228091E8008B77EF
:104250008093E800089560E090E080E0F3CF8091E3
:104260006F038111C3CF089580917003813AD9F70C
:104270008091740390917503892BA9F78091E800D0
:10428000877F8093E8008091E80080FFFCCF8091D9
:104290002B018093F1008091E8008E77BDCF809153
:1042A0007003813201F78091740390917503892B1B
:1042B000D1F68091E800877F8093E8000E948023F8
:1042C0008091720380932B010C94CD178091700321
:1042D000813249F68091E800877F8093E8000E9450
:1042E0008023809173038093F90208958091700375
:1042F000813A09F0B8CF8091E800877F8093E80089
:104300008091E80080FFFCCF8091F902C2CF84B792
:10431000877F84BF0FB6F894A8958091600088616C
:1043200080936000109260000FBE80E890E00FB6AE
:10433000F89480936100909361000FBE0E94C613B1
:104340000E94D0230E942D248091E20084608093FB
:10435000E20078940E94B6260E94DA1381E291E08E
:104360000E944F1380916F03853099F00E94E213F1
:104370000E94D613F7CF0E94341F80916D038823CB
:1043800041F00E94631F882321F00E942A220E948C
:10439000CD1780916F03853071F30E947A1FE6CFAD
:1043A0000C94D221292F33272330310519F168F4D9
:1043B0002130310509F444C02230310509F445C0EB
:1043C00090E080E030E020E025C02132310549F165
:1043D00022323105A9F780E490E02EE134E0611546
:1043E0007105C1F08BE790E023EA33E0613071059D
:1043F00089F0E6CF99278130910581F0009729F067
:104400000297F1F6E6E2F3E002C0E2E5F3E0849120
:1044100090E09F01FA01318320830895EAE3F3E0FD
:10442000F6CF89E090E028E633E06115710591F35D
:1044300089E090E021E833E06130710559F3C0CFA5
:1044400082E190E021E933E0E5CF8BE390E026E5DF
:1044500033E0E0CF80E189BD82E189BD09B400FE8F
:10446000FDCF8091D8008F7D8093D8008091E000AF
:1044700082608093E0008091E00081FDFCCF089590
:10448000AF92BF92CF92DF92FF920F931F93CF9381
:10449000DF936C01EB018A010E949F23F82E8111AA
:1044A00023C00115110539F0F80180819181C81BE5
:1044B000D90BC80ED91EB12CA12C2097A9F0809140
:1044C000E80085FD22C08091E8008E778093E800A7
:1044D00001151105A1F0F80180819181A80EB91E86
:1044E000B182A08285E0F82E8F2DDF91CF911F91B0
:1044F0000F91FF90DF90CF90BF90AF9008950E94F2
:104500009F238823D1F2F82EEFCFF60181916F011E
:104510008093F1002197FFEFAF1ABF0ACECFFC01C5
:10452000809176039091770386179707A0F0611525
:10453000710529F49091E8009E779093E80090E04F
:104540006115710551F4911108C08091E80082FF56
:1045500034C080E00895BC01F2CF80916F038823BE
:10456000C1F18530C1F18091E80083FD30C08091B8
:10457000E80082FDEACF8091E80080FFE1CF8091E2
:10458000F3002091F200382F6115710519F02830E1
:10459000310558F091E02830310509F090E0209184
:1045A000E8002E772093E800CBCF81918093F10033
:1045B000615071092F5F3F4FE7CF80916F038823D0
:1045C00041F0853041F08091E80083FFBECF81E06B
:1045D000089582E0089583E00895FC0180917603B8
:1045E0009091770386179707A0F06115710529F45C
:1045F0008091E8008E778093E80090E06115710566
:1046000051F4911108C08091E80082FF35C080E02C
:104610000895BC01F2CF80916F038823C9F18530E2
:10462000C9F18091E80083FD31C08091E80082FDEE
:10463000EACF8091E80080FFE1CF8091F3002091E4
:10464000F200382F6115710519F02830310558F046
:1046500091E02830310509F090E08091E8008E77F4
:104660008093E800CBCF84918093F1003196615024
:1046700071092F5F3F4FE6CF80916F03882341F090
:10468000853041F08091E80083FFBDCF81E008953F
:1046900082E0089583E00895982F973028F08F7076
:1046A0008093E90081E008959093E900242F762F0C
:1046B00050E0981731F07091EC002091ED0050918E
:1046C000F00021FD02C09F5FE8CF3091EB003E7FFC
:1046D0003093EB003091ED003D7F3093ED00309151
:1046E000EB0031603093EB007093EC002093ED0011
:1046F0005093F0002091EE0027FDE5CF80E0089573
:104700008091700387FF13C08091E80082FF06C08C
:104710008091E8008B778093E80004C080916F035C
:104720008111F2CF089580916F038823D9F380918E
:10473000E80080FFF8CF8091E8008E77ECCF2091E1
:10474000E4003091E50095E6A9012091EC00822F6C
:10475000817020FF06C08091E80080FF06C080E0E5
:1047600008952091E80022FD1AC080916F038823EC
:1047700089F0853089F08091EB0085FD0FC0209194
:10478000E4003091E50042175307F9F29150E1F649
:1047900084E0089582E0089583E0089581E008951B
:1047A0000E943E240E944624E0EEF0E08081816079
:1047B0008083E8EDF0E080818F77808319BCA7EDDE
:1047C000B0E08C918E7F8C9380818F7E808310925D
:1047D0006E0308950F931F93CF93DF930E943E249F
:1047E0000E944624C8EDD0E088818F778883888135
:1047F0008068888388818F7D888319BC10926F03BD
:1048000010926B0310926D0310926C0300EE10E097
:10481000F80180818B7F808388818160888342E07A
:1048200060E080E00E944C23E1EEF0E080818E7F2A
:104830008083E2EEF0E08081816080838081886007
:104840008083F80180818E7F808388818061888366
:10485000DF91CF911F910F910895E8EDF0E08081F5
:104860008F7E8083E7EDF0E080818160808384E04B
:1048700082BF81E080936E030C94EA23E8EDF0E0C0
:1048800080818E7F80831092E20008951092DA007A
:104890001092E10008951F920F920FB60F9211240B
:1048A0002F933F934F935F936F937F938F939F9338
:1048B000AF93BF93EF93FF938091E10082FF0BC012
:1048C0008091E20082FF07C08091E1008B7F80939E
:1048D000E1000E94B5268091DA0080FF19C0809126
:1048E000D80080FF15C08091DA008E7F8093DA00B7
:1048F0008091D90080FF96C080E189BD82E189BDA9
:1049000009B400FEFDCF81E080936F030E94B220C6
:104910008091E10080FF19C08091E20080FF15C006
:104920008091E2008E7F8093E2008091E2008061BE
:104930008093E2008091D80080628093D80019BCF7
:1049400085E080936F030E94C4208091E10084FF82
:104950002BC08091E20084FF27C080E189BD82E105
:1049600089BD89B5982F917080FFFBCF8091D800C9
:104970008F7D8093D8008091E1008F7E8093E1004D
:104980008091E2008F7E8093E2008091E20081605E
:104990008093E20080916B03882309F449C084E08E
:1049A00080936F030E94C5208091E10083FF29C09E
:1049B0008091E20083FF25C08091E100877F809392
:1049C000E10082E080936F0310926B038091E1001D
:1049D0008E7F8093E1008091E2008E7F8093E200E1
:1049E0008091E20080618093E20042E060E080E03C
:1049F0000E944C238091F00088608093F0000E9418
:104A0000C320FF91EF91BF91AF919F918F917F91C3
:104A10006F915F914F913F912F910F900FBE0F902B
:104A20001F90189519BC10926F030E94C02070CF80
:104A30008091E30087FD93E090936F03B3CF1F92C3
:104A40000F920FB60F9211242F933F934F935F93C2
:104A50006F937F938F939F93AF93BF93CF93DF9386
:104A6000EF93FF93D091E900DF708091EC00C82FA5
:104A7000C17080FDC0E81092E9008091F000877F4E
:104A80008093F00078940E9463251092E900809151
:104A9000F00088608093F000CD2BCF70C093E900C8
:104AA000FF91EF91DF91CF91BF91AF919F918F9146
:104AB0007F916F915F914F913F912F910F900FBE1A
:104AC0000F901F9018951F93CF93DF93CDB7DEB74C
:104AD000AA970FB6F894DEBF0FBECDBF80E793E074
:104AE0002091F100FC012193CF01F3E088379F076B
:104AF000B9F70E94D0208091E80083FF1EC1809109
:104B00007003909171039A3008F017C1E92FF0E01B
:104B1000E45AF74D0C943527803899F0823809F023
:104B20000CC1809174038F70873008F006C18093A8
:104B3000E9008091EB0085FB882780F91092E9005D
:104B400006C080916C0390916D03911182609091E9
:104B5000E800977F9093E8008093F1001092F100B5
:104B60008091E8008E77E5C0882309F4D3C08230B5
:104B700009F0E3C0809172038111D6C08091740363
:104B80008F702FEF280F263008F0D7C08093E900F0
:104B90002091EB0020FFC8C0933031F48091EB00EE
:104BA00080628093EB00C0C09091EB009061909385
:104BB000EB0021E030E001C0220F8A95EAF7209354
:104BC000EA001092EA008091EB008860EACF811140
:104BD000B4C0109172031F778091E3008078812B1D
:104BE0008093E3008091E800877F8093E8000E9433
:104BF00080238091E80080FFFCCF8091E3008068F3
:104C00008093E30082E0111183E080936F0395C0ED
:104C10008058823008F091C08091720390917303A4
:104C20008C3D23E09207A1F583E08A838AE28983A1
:104C30004FB7F894DE01139620E03EE051E2E32FF7
:104C4000F0E050935700E49120FF03C0E295EF702D
:104C50003F5FEF708E2F90E0EA30C0F0C7968D93E3
:104C60009D932F5F243159F74FBF8091E800877FD4
:104C70008093E8006AE270E0CE0101960E948F22E4
:104C80008091E8008B778093E80057C0C096E7CF0B
:104C90006091740370917503AE014F5F5F4F0E9486
:104CA000D021BC01892B09F448C09091E800977F7E
:104CB0009093E80089819A810E94ED22E1CF8038AB
:104CC000E1F58091E800877F8093E80080916B0395
:104CD0008093F10045CF811130C0909172039230E2
:104CE00060F58091E800877F8093E80090936B03E4
:104CF0000E94802380916B03882311F084E005C01B
:104D00008091E30087FDFACF81E080936F030E94DA
:104D1000C62013C080917203813079F481E0933012
:104D200009F080E080936D031092E9008091E80023
:104D3000877F8093E8000E9480238091E80083FFB2
:104D40000AC08091E800877F8093E8008091EB00A3
:104D500080628093EB00AA960FB6F894DEBF0FBE78
:104D6000CDBFDF91CF911F9108950895CF9380918A
:104D70006F038823A1F0C091E900CF709091EC00FF
:104D8000892F817090FD80E8C82B1092E9008091F6
:104D9000E80083FD0E946325CF70C093E900CF91A6
:104DA0000895991B79E004C0991F961708F0961B87
:104DB000881F7A95C9F78095089587FB082E0626E7
:104DC00087FD819567FD61950E94D1260EF491952E
:104DD00007FC81950895AA1BBB1B51E107C0AA1FC0
:104DE000BB1FA617B70710F0A61BB70B881F991F8C
:104DF0005A95A9F780959095BC01CD01089597FB30
:104E0000072E16F4009407D077FD09D00E94EB26F8
:104E100007FC05D03EF4909581959F4F08957095BD
:104E200061957F4F0895A1E21A2EAA1BBB1BFD01BD
:104E30000DC0AA1FBB1FEE1FFF1FA217B307E40779
:104E4000F50720F0A21BB30BE40BF50B661F771FD1
:104E5000881F991F1A9469F76095709580959095B1
:104E60009B01AC01BD01CF010895EE0FFF1F05901E
:104E7000F491E02D09940E944327332312F48A1BF6
:104E80009B0B0C945427A29FB001B39FC001A39F1A
:104E9000700D811D1124911DB29F700D811D112473
:104EA000911D08950E944327B7FF0895821B930B1D
:104EB00008950E944327A59F900DB49F900DA49F35
:104EC000800D911D11240895B7FF0C9459270E945D
:104ED0005927821B930B08958F929F92AF92BF9296
:104EE000CF92DF92EF92FF92CF93DF93EC01688134
:104EF00079818A819B81611571058105910521F474
:104F000064E279ED8BE597E02DE133EF41E050E08D
:104F10000E941D2849015A019B01AC01A7EAB1E496
:104F20000E9459276B017C01ACEEB4EFA5019401FE
:104F30000E946727DC01CB018C0D9D1DAE1DBF1D9E
:104F4000B7FF03C00197A109B04888839983AA835A
:104F5000BB839F77DF91CF91FF90EF90DF90CF9051
:104F6000BF90AF909F908F9008950E946C270895F6
:104F700080E091E00E946C270895B0E0A0E080936B
:104F8000000190930101A0930201B09303010895E1
:104F9000FC014150504030F001900616D1F7319796
:104FA000CF010895882799270895F999FECF92BDDA
:104FB00081BDF89A992780B50895A6E1B0E044E054
:104FC00050E00C940F28A8E1B0E042E050E00C94CF
:104FD0000F28262FF999FECF92BD81BDF89A01972F
:104FE00000B4021639F01FBA20BD0FB6F894FA9A31
:104FF000F99A0FBE08950396272F0E94EA270E9470
:10500000E927252F0E94EA27242F0C94EA270196EE
:10501000272F0E94EA270C94E927DC01CB01FC0131
:10502000F999FECF06C0F2BDE1BDF89A319600B401
:105030000D9241505040B8F70895052E97FB1EF48D
:1050400000940E94342857FD07D00E94132707FCC4
:1050500003D04EF40C94342850954095309521950A
:105060003F4F4F4F5F4F0895909580957095619594
:105070007F4F8F4F9F4F0895F894FFCF9615961549
:10508000EE15EE1540165C16C315C3156716F3161C
:10509000021702175E17C315C3156717DC17DC1755
:1050A000E517E517E717E517E517E517DC17DC1730
:1050B000EC17E517E517EC178C25B4259D26B425CC
:0C50C0009D26E72508269D265F266B260E
:1050CC00010000002808641E140A321E01010200AF
:1050DC001E001E1E01191A1B1C1D1E1F202122E35F
:1050EC000226208520642060205C2001E200E9007B
:1050FC00EA00B500B600B700CD008301CC008A01F0
:10510C009201940121022302240225022602270285
:10511C002A02B300B4006F00700081828330379094
:10512C0034919293959497000102020202060606AE
:10513C000909090909090F0F0F0F0F0F151515187C
:10514C00191919191919191919192324252525257E
:10515C002525E200E900EA00B500B600B700CD0055
:10516C008301CC008A0192019401210223022402C2
:10517C002502260227022A02B300B4006F00700039
:04518C008182830099
:00000001FF
