:100000000C945F020C94A6020C94A6020C94A60217
:100010000C94A6020C94A6020C94A6020C94A602C0
:100020000C94A6020C94A6020C9494240C946825BB
:100030000C94DE1F0C94A6020C94A6020C94A6024B
:100040000C94A6020C94A6020C94A6020C94A60290
:100050000C94A6020C9435200C94A6020C94A602D3
:100060000C94A6020C94A6020C94A6020C94A60270
:100070000C94A6020C94A6020C94A6020C94A60260
:100080000C94A6020C94A6020C94A6020C94A60250
:100090000C94A6020C94A6020C94A6020C94A60240
:1000A0000C94A6020C94A6020C94A6021B00050058
:1000B0000B000151000000000000000000000000E3
:1000C00000000000000000000000000027001E00EB
:1000D0001F002000000000000000000000000000E1
:1000E00000000000000000000000000021002200CD
:1000F00023002400000000000000000000000000B9
:1001000000000000000000000000000025002600A4
:1001100004000500000000000000000000000000D6
:1001200000000000000000000000000006000700C2
:1001300008000900000000000000000000000000AE
:1001400000000000000000000000000001000000AE
:10015000000000000000000000000000000000009F
:100160000000000000000000000000001E0F05005D
:10017000047F3F1F643214643214783C1E1E140A3C
:10018000052223252628292A2C2D2F3032333536D7
:10019000383A3B3D3E4042434547494A4C4E505118
:1001A000535557595A5C5E6062646668696B6D6F3F
:1001B00071737577797B7D7F81838587898A8C8E42
:1001C00090929496989A9C9E9FA1A3A5A7A8AAAC4A
:1001D000AEAFB1B3B4B6B8B9BBBCBEBFC1C2C3C584
:1001E000C6C7C9CACBCCCDCED0D1D2D2D3D4D5D626
:1001F000D7D7D8D9D9DADADBDBDBDCDCDCDCDCDD59
:10020000DDDDDDDCDCDCDCDCDBDBDBDADAD9D9D83C
:10021000D7D7D6D5D4D3D2D2D1D0CECDCCCBCAC9D4
:10022000C7C6C5C3C2C1BFBEBCBBB9B8B6B4B3B103
:10023000AFAEACAAA8A7A5A3A19F9E9C9A9896949E
:1002400092908E8C8A89878583817F7D7B79777573
:1002500073716F6D6B6968666462605E5C5A595752
:10026000555351504E4C4A4947454342403E3D3B11
:100270003A3836353332302F2D2C2A29282625239B
:1002800022FFAA7F55400001010101010101010186
:100290000202020202020202020303030303030337
:1002A0000304040404040404050505050506060604
:1002B0000606070707070708080808090909090AC1
:1002C0000A0A0B0B0B0C0C0C0D0D0D0E0E0E0F0F66
:1002D0000F101011111112121313141415151616F4
:1002E0001717181819191A1A1B1B1C1D1D1E1E1F63
:1002F0002020212222232424252626272829292AB2
:100300002B2C2D2D2E2F30313232333435363738D9
:10031000393A3B3C3D3E3F404142434445464748D5
:10032000494A4C4D4E4F50515354555658595A5BAB
:100330005D5E5F616264656668696B6C6D6F70724B
:10034000737577787A7B7D7E8082838587888A8CB7
:100350008E8F91939596989A9C9EA0A2A3A5A7A9EB
:10036000ABADAFB1B3B5B7BABCBEC0C2C4C6C9CBE2
:10037000CDCFD1D4D6D8DBDDDFE2E4E7E9EBEEF098
:10038000F3F5F8FAFDFF12034D00610063007200FF
:100390006F007000610064000000160341006C00F3
:1003A000650078002000420069006E006F00730055
:1003B00000000403090409023B00020100A0FA093D
:1003C0000400000103010100092111010001224084
:1003D000000705810308000A090401000103000069
:1003E00000092111010001227B0007058203200082
:1003F0000A120110010000000834127856000001B2
:1004000002000105010902A10185020901A10005FF
:1004100009190129081500250195087501810205B2
:1004200001093009311581257F950275088106097A
:10043000381581257F950175088106050C0A38025B
:100440001581257F950175088106C0C005010980C9
:10045000A101850319012AB700150126B7009501EE
:1004600075108100C0050C0901A101850419012A3C
:10047000A002150126A002950175108100C005019A
:100480000906A101050719E029E7150025019508CE
:10049000750181029501750881010507190029FF81
:1004A000150026FF00950675088100050819012929
:1004B00005950575019102950175039101C01124FF
:1004C0001FBECFEFDAE0DEBFCDBF04B603FE27C00C
:1004D0008091C3039091C403A091C503B091C6035A
:1004E0008730904BA740B04BD1F41092C3031092C9
:1004F000C4031092C5031092C60314BE84B7877F4D
:1005000084BF0FB6F894A8958091600088618093AD
:100510006000109260000FBEE0E0F8E3099511E082
:10052000A0E0B1E0EEE5F1E502C005900D92A03D3E
:10053000B107D9F723E0A0EDB1E001C01D92A33CC3
:10054000B207E1F70E94D0210C9485280C9400009A
:1005500081E0089581E008950C94AA0208950C9416
:10056000AE021F93CF93DF9300D000D00F92CDB790
:10057000DEB749835A836B833091A30289819A81C4
:1005800031111DC06623B9F02223A9F00E94111D6C
:10059000182F682F89819A810E94BE1C69817A81F7
:1005A000812F0F900F900F900F900F90DF91CF91B0
:1005B0001F910C9479030E94EA1C182FEFCF0E9420
:1005C000111D69817A81EDCFFC01262F4081518177
:1005D0006281738184810C94B102CF93DF93EC012B
:1005E00060E00E94E402BE01DF91CF910C94AF0263
:1005F0000E94A0050C94C5050C94C80508950E949E
:1006000028180E94FE022FEF84E39CE021508040D6
:100610009040E1F700C000000C9459200F931F9305
:10062000CF93DF938C0161E00E94E402EC01B801FA
:100630000E94AC028823D9F1B801CE010E94F611C4
:100640008823A9F1B801CE010E944812882379F1CC
:10065000B801CE010E946B13882349F1B801CE0185
:100660000E949110882319F1F8018281882361F09A
:10067000CB35FDE5DF0721F170F4C115ECE5DE07B0
:10068000A1F0CF3DDC45C9F0C801DF91CF911F91AA
:100690000F910C94A802CC358DE5D807A1F0CD358B
:1006A000DD4591F70E94B81DEFCF0E94FF0280E068
:1006B000DF91CF911F910F9108950E94311FF7CFC5
:1006C0000E94C11DE1CF0E94C41DDECF08950C948D
:1006D000660381E008950C946903CF93C82F0E94AC
:1006E00067038C2FCF910C946B0390E080E008950A
:1006F0000895E72FF0E096E0899FE00DF11D1124A9
:1007000084E0EE0FFF1F8A95E1F7E60FF11DEE0F73
:10071000FF1FE455FF4F859194910895FC01EE0F62
:10072000FF1FE459FE4F859194910895CF93DF9375
:100730000E9479030E94AB04EC01811520E5920729
:1007400008F042C0811530E4930708F0BDC0883E30
:10075000910528F5803E910508F09DC0883A9105E5
:1007600088F4853A910508F08FC08130910509F42D
:1007700092C0009709F48FC0049708F08CC0D0E0B5
:10078000C0E089C08F3B910508F489C0805C910965
:10079000C03CD105A0F30E948E03EC017CC0811502
:1007A000904250F4C11581E0D80708F074C0CD3EE6
:1007B000D10528F3D0656FC0C11590E3D90708F0C3
:1007C00079C0CE019F70E7CF811525E5920758F5D6
:1007D000811534E5930708F0A6C0811542E594071A
:1007E00050F4C11581E5D80708F471C0DC2FCC277F
:1007F000C16FD06A50C0982F969596959E01237030
:100800003327C115D34508F07FC0C1E0D0E002C056
:10081000CC0FDD1F2A95E2F720E2929FC001112440
:10082000C82BD92B6FC0C11589E5D807A8F4C1150D
:1008300098E5D90708F07CC0C11526E5D20708F075
:100840009ECF8C2F0E944205C82FD0E0DC2FCC27F2
:10085000CC27DF71D0621FC0C1153AE5D30708F479
:100860006CC0CE0190568115904208F088CF8D2F34
:100870008F710E94420590E0982F882788279F71EA
:100880009C012C2BE901E6CFC55AD0E0C65ADE4FB9
:10089000C881D0E0D064CE01DF91CF910895C85ACD
:1008A000D0E0CC0FDD1FC45DDE4F0990D881C02D94
:1008B000D464F1CFCE019927D3FF03C0EC01D86CEB
:1008C000EACFEC01D06CE7CFDF70D06AE4CFCE0185
:1008D000E4E096958795EA95E1F783702C2F2695AD
:1008E0002695237090E2299F90011124382B8C2F9C
:1008F0008370C1E0D0E002C0CC0FDD1F8A95E2F723
:10090000C22BD32BDC68C7CFC1E0D0E002C0CC0F34
:10091000DD1F2A95E2F730E2939FC0011124C82B16
:10092000D92BDA68B8CFD82FCC27C46FD06AB3CF11
:10093000DC2FCC27C06FD06AAECF8C2F8F700E9477
:10094000420534E0D695C7953A95E1F7CF709C2FD4
:10095000EC01D069A0CF82389105B1F1B0F48133B8
:10096000910509F475C048F48932910509F469C00C
:100970008A32910509F473C008958533910509F40D
:1009800059C08933910501F10895833E9105A9F17C
:1009900038F4803E9105F9F0823E910549F10895C1
:1009A000863E9105A9F1873E9105C9F1843E9105E6
:1009B00019F520913A0321FF1FC08091390384FD6E
:1009C00014C087EE90E00895209139032370A1F0C0
:1009D00080EE90E008952091390320FD47C03091CA
:1009E0003A0330FF09C024FF44C090E080E004C017
:1009F0002091390322FDF7CF08952091390322FD7C
:100A00003BC030913A0330FDE3CF24FFF5CFEDCF6B
:100A10002091390323FFF0CF24FDE7CFD2CF2091DF
:100A2000390323FD2CC030913A0331FFEECF84EE21
:100A300090E008952091390325FFDECF89E290E010
:100A400008952091390325FFD7CF85E390E00895DD
:100A50002091390326FFD0CF8AE290E008952091BB
:100A6000390326FFC9CF81E390E0089589E390E040
:100A7000089583EE90E0089582EE90E0089586EE6A
:100A800090E008959091390392FF06C0282F2871B5
:100A90002830F9F4877F846093FF06C0282F2871DF
:100AA0002831F1F4877E846120913A0320FF06C04B
:100AB000382F38713830D9F4877F816021FF06C024
:100AC000282F28712831D1F4877E816194FD877E9B
:100AD0000895282F24712430F9F68B7F8860DCCFAD
:100AE000282F2471243101F78B7E8861DDCF382FC8
:100AF0003171313019F78E7F8860E0CF282F217156
:100B0000213121F78E7E8861E1CF0C94861E0E94F0
:100B100028062FEF86E791E0215080409040E1F7D2
:100B200000C000000E94280680E00E94CA0580FFE5
:100B300004C00E9485050C94592008950C948705E3
:100B40000E948C1E811102C00E94311F0E94971EBC
:100B500080932D030E949F1E90933A038093390344
:100B60000E949E050E949B1E682F70E090E080E02E
:100B70000E94C01B609118037091190380911A03A1
:100B800090911B030C94FA1B08950C94C4050895CE
:100B90000C94C705E82FF0E0EE0FFF1FE95BFC4F58
:100BA000808191810895089580EA8A95F1F70895EA
:100BB00000C008950C94D405F894E82FE295EF70E6
:100BC000F0E031A1282F2F7081E090E001C0880F64
:100BD0002A95EAF7982F9095932391A392A1892BB8
:100BE00082A3789408950F931F93CF93DF9380EFA0
:100BF0000E94DC0582E90E94DC0583E90E94DC0595
:100C000085E90E94DC0584E90E94DC0587E90E94F1
:100C1000DC05CDE5D1E00DE611E089910E94DC050F
:100C20000C171D07D1F7EBE3F3E0A7E4B3E0119253
:100C300011921D921D9283E0E734F807C1F786E018
:100C40000E94A806DF91CF911F910F910C94F8029A
:100C5000AF92BF92DF92EF92FF920F931F93CF93C9
:100C6000DF93CDE6D1E00BE313E0D12CEE24E39447
:100C7000F12C8991F894E82FE295EF70F0E021A132
:100C80008F70A70102C0440F551F8A95E2F7CA0171
:100C9000922F982B91A392A18095892382A3789477
:100CA0000E94D805EDE5F1E030E020E0B12CA12C68
:100CB0004191A42FA295AF70B0E090968C9190E0F6
:100CC0004F7002C0959587954A95E2F780FD3BC02D
:100CD000C701022E02C0880F991F0A94E2F7A82AC2
:100CE000B92A2F5F3F4F2031310511F7FE013197AF
:100CF00080810E94DC050E94DA05F80180819181E3
:100D0000A816B90619F1B182A08281E0D82A0E5F37
:100D10001F4FF1E0C337DF0709F0ABCF2D2D46E0C1
:100D200067E473E08BE393E00E94A9060E94FC0253
:100D30008D2DDF91CF911F910F91FF90EF90DF905C
:100D4000BF90AF90089590E080E0C9CF80E0DECF03
:100D50000895FF920F931F93CF93DF93F82E092FDF
:100D6000162FD72FC42F222349F081E08093D4017E
:100D70000E940E209093D3018093D2018091D401E0
:100D80008823A1F08091D2019091D3010E94262066
:100D9000069760F0EF2DF02FA12FBD2F90E080E09F
:100DA000D0E08C179D0744F01092D401DF91CF91D1
:100DB0001F910F91FF900895219131912D933D93B3
:100DC0000196EFCF8091DB0180FF12C06091090195
:100DD00085E0689FB00111247595679575956795B5
:100DE00060387105A8F561157105A1F1862F089588
:100DF00081FF09C06091090185E0689FB00111245D
:100E000075956795EDCF6091090182FD0AC08091CB
:100E1000DA018823D1F090910801609109018917C6
:100E200028F085E0689FB0011124DACF869FB001D9
:100E3000112485E0869F9001879F300D1124692F32
:100E400070E0C9010E944827CBCF65E070E0CECFAB
:100E50008FE7089581E008958091DB0180FF0CC049
:100E60006091050170E075956795759567956115B9
:100E7000710549F1862F089581FF06C06091050133
:100E800070E075956795F3CF6091050182FD0BC009
:100E90009091D9019923A1F06091040180910501FD
:100EA000961738F0682F70E06038710500F38FE70F
:100EB0000895899FC001112470E00E944827F4CF53
:100EC00061E070E0D7CF81E008958D3E31F40E945B
:100ED000E20681958093DF0108958E3E19F40E9409
:100EE000E206F8CF8F3E31F40E94E20681958093AE
:100EF000DE010895803F19F40E94E206F8CF893F91
:100F000029F40E942C078093E00108958A3F21F480
:100F10000E942C078195F7CF8B3F31F40E942C075C
:100F200081958093E10108958C3F19F40E942C076C
:100F3000F8CF9FE0980F983070F4815F990B21E013
:100F400030E001C0220F8A95EAF78091DD01822B03
:100F50008093DD0108958D3F31F48091DB01816044
:100F60008093DB0108958E3F21F48091DB01826044
:100F7000F7CF8F3FB9F78091DB018460F1CF4091CB
:100F8000DE018D3E59F48091DF0187FF0DC0109284
:100F9000DF0141110BC01092DA0108C08E3E81F4CE
:100FA0008091DF0118169CF3442381F08091E001C9
:100FB0009091E101892B09F05AC01092D90108954E
:100FC0008F3E49F447FFF0CF1092DE018091DF01A0
:100FD0008111ECCFE0CF803F19F41416ACF3E4CFCD
:100FE0009091E001893F29F41916F4F61092E0017E
:100FF000DBCF8A3F19F497FFD7CFF8CF9091E1016B
:101000008B3F29F497FFD0CF1092E101CDCF8C3FD9
:1010100019F41916CCF3C8CF9FE0980F983090F4CC
:10102000815F990B21E030E0B90102C0660F771FA4
:101030008A95E2F7CB0180959091DD018923809319
:10104000DD01B2CF8D3F31F48091DB018E7F809343
:10105000DB01AACF8E3F21F48091DB018D7FF7CF9A
:101060008F3F09F0A1CF8091DB018B7FF0CF0895F6
:101070000E940E209C019091DE018091DF01982B4F
:1010800021F03093D8012093D7019091E001809115
:10109000E101982B21F03093D6012093D5018CEDFE
:1010A00091E00C94B113EF92FF920F931F93CF93A3
:1010B000DF9300D000D000D0CDB7DEB786E0ECEDF6
:1010C000F1E0DE01119601900D928A95E1F7E09032
:1010D000DE01F090DF010091E0011091E10110923A
:1010E000DE011092DF011092E0011092E1018E2DDD
:1010F0008F2991F08091D7019091D8010E942620EC
:10110000AC019091DA01992309F43FC080910A0162
:101110008417150608F447C0802F812B91F0809129
:10112000D5019091D6010E942620AC019091D90161
:10113000992309F477C0809106018417150608F4F5
:101140007FC08091DE019091DF01892B9091E001B9
:10115000892B9091E101892B11F00E94380886E0DB
:10116000FE013196ACEDB1E001900D928A95E1F768
:1011700026960FB6F894DEBF0FBECDBFDF91CF919C
:101180001F910F91FF90EF90089520910B018AE03D
:10119000289F900111242417350708F0BDCF9F5FC9
:1011A0009093DA0102C09F3FD1F7EE2059F00E94E0
:1011B000E2069FEF1E140CF491E0899F802D11240C
:1011C0008093DE01FF2059F00E94E2069FEF1F147A
:1011D0000CF491E0899F802D11248093DF013091E0
:1011E000DE01332309F498CF2091DF01222309F493
:1011F00093CF45EB3403C0011124992359F0909308
:10120000DE0145EB240390011124332339F03093A0
:10121000DF0182CF81E08093DE01F3CF81E0809314
:10122000DF017ACF209107018AE0289F90011124E5
:101230002417350708F085CF9F5F9093D90102C02E
:101240009F3FD1F7002359F00E942C079FEF101603
:101250000CF491E0899F802D11248093E0011123EB
:1012600059F00E942C079FEF11160CF491E0899F12
:10127000802D11248093E1013091E001332309F4A2
:1012800060CF2091E101222309F45BCF45EB3403C9
:10129000C0011124992359F09093E00145EB2403F8
:1012A00090011124332339F03093E1014ACF81E0DA
:1012B0008093E001F3CF81E08093E10142CF86E0AB
:1012C000ECEDF1E0DF011D928A95E9F71092DA0169
:1012D0001092D9011092DB010895EF92FF920F93C3
:1012E0001F93CF93DF93EB01E82FD11110C044235C
:1012F00021F0F0E0EA57FD4FE4916E2F7E2F8E2F04
:10130000DF91CF911F910F91FF90EF9008950D2FD6
:1013100010E0282F30E0442329F02A573D4FF901EF
:10132000249130E0F6E0CF9FC0011124EFEFF0E010
:10133000BF010E943427AB018C2F90E0880F991FCA
:10134000A5E5A49FB001A59F700D1124861B970BE6
:10135000982F990F980FBF01601B710B629FD001EE
:10136000639FB00D729FB00D11248B2F9D9FB00114
:101370001124672F7727EF01C61BD70BBE01629F91
:10138000E001639FD00D729FD00D11247F01E91AF7
:10139000F108E09EB001E19E700DF09E700D1124E9
:1013A000672F7727E61BF70BE29F8001E39F100D65
:1013B000F29F100D1124E12F722F4230510599F048
:1013C00048F44115510569F04130510581F0EB2F8A
:1013D0008D2F07C04430510569F080F0463051052B
:1013E000B1F76E2F8DCFE22F7B2F812FFACFE22F17
:1013F0007D2FF7CFEB2F822F712FF3CF7B2F822FF3
:10140000ED2FEFCF41E00C946D0908950C94020A82
:10141000CF93DF93762FE901682F842F0E94060A6D
:10142000798368838A83DF91CF910895413808F0EA
:1014300040E80C94080A80915303982F9E7F61F432
:10144000817082608093530380915603813818F035
:1014500080E88093560308958635B0F381708465E3
:10146000F1CF88E090E00C942628CF92DF92EF92A3
:10147000FF926B017C010E941B0AB701A60188E064
:1014800090E0FF90EF90DF90CF900C944428E3E53C
:10149000F3E083E0808311828FEF828380E883838F
:1014A000148260817181828193810C94350A8091CC
:1014B000530380FF02C08695089580E008959091BF
:1014C0005703933018F49F5F90935703882351F08C
:1014D000609153037091540380915503909156038A
:1014E0000C94350A089581E00C945F0A909157039B
:1014F000992319F0915090935703882351F06091EC
:1015000053037091540380915503909156030C94AA
:10151000350A089581E00C94760A70E00C945E110F
:10152000609110018091530380FF0AC080910F01E8
:1015300023E0829FC0011124885A9C4F0C948D0A8D
:10154000809111019091120123E0829FF0011124FA
:10155000E85AFC4F891750F71182108212828F5F70
:101560003396F8CF9091530390FF14C090911101DE
:101570002091120133E0939FF0011124E85AFC4FAF
:10158000921710F00C94900A8183608342839F5FCE
:101590003396F6CF0895CF93DF9300D00F92CDB757
:1015A000DEB79091530390FF0AC09E012F5F3F4F1B
:1015B0000E94160A4B8169818A810E94B20A0F90AB
:1015C0000F900F90DF91CF910895CF93DF93EC01AF
:1015D000EC81F0E0EF57FE4F4491E3E5F3E06281E8
:1015E00081810E94CB0A8C818F5F8C83DF91CF91A8
:1015F0000895CF93DF93EC01E3E5F3E0438162814B
:101600008C810E94CB0A8C818F5F8C83DF91CF917C
:1016100008950F931F93CF93DF9300D00F92CDB710
:10162000DEB78C018091E20181110AC09E012F5F1B
:101630003F4F40E86FEF0E94160A8A818093E201D3
:10164000F8016481613069F08091E20140E0662335
:1016500061F040E0623011F44091E20180E060E02E
:1016600004C06091E20140E080E00E94B20AF8010B
:10167000848190E0019663E070E00E9448278483B3
:101680000F900F900F90DF91CF911F910F910895C0
:10169000AF92BF92CF92DF92EF92FF920F931F9380
:1016A000CF93DF9300D00F92CDB7DEB7182FF62E71
:1016B000042FE22E9091530390FF29C0E92FE69565
:1016C000AE2FB0E0AD58BE4F8C91809382029E7FCA
:1016D000923059F59E012F5F3F4F812F0E94160ACD
:1016E0004B8169818A810E94B20A10935403F0925F
:1016F000550300935603EE2051F06091530370910F
:10170000540380915503909156030E94350A0F901F
:101710000F900F90DF91CF911F910F91FF90EF905D
:10172000DF90CF90BF90AF900895823019F4009170
:101730005603DBCF863019F410915403D6CF89308D
:10174000D9F3893191F6E9518E2F8170D82EE69523
:10175000F0E0EF57FD4FA590B490C12CBB246091F1
:101760001301C61618F00E94900ABFCF2C2D30E04E
:10177000A29EC001A39E900DB29E900D112470E018
:101780000E943427812FD11013C0860F4091110180
:10179000420F532F511D9A01220F331F240F351F63
:1017A000285A3C4F402F6F2D0E94160AC394D7CF62
:1017B000861BECCFE3E5F3E09181282F4381628122
:1017C00088E0890F0C94480B81E00C94DA0BE3E578
:1017D000F3E09181282F4381628188EF890F0C9477
:1017E000480B81E00C94E70BE3E5F3E0628128E02D
:1017F000620F08F46FEF282F438181810C94480B0E
:1018000081E00C94F40BE3E5F3E0628128E0621BD5
:1018100008F460E0282F438181810C94480B81E01B
:101820000C94030CE3E5F3E0438128E0420F08F455
:101830004FEF282F628181810C94480B81E00C943A
:10184000120CE3E5F3E0438128E0421B08F440E09A
:10185000282F628181810C94480B81E00C94210C2B
:1018600020E00C94480BEF92FF921F93CF93DF93ED
:10187000EC0110E0EE24EA94F12C609113011617AC
:1018800070F00E94900A9A818C8190FF27C08F5F30
:101890008C83DF91CF911F91FF90EF90089520915D
:1018A0001101422F410F5527551FCA019A01220FDE
:1018B000331F280F391F285A3C4F70E0C7010E9480
:1018C0004827962F8C814091560360915503199FAC
:1018D000800D11240E94160A1F5FCFCF8150D8CFF0
:1018E000AF92BF92CF92DF92EF92FF920F931F932E
:1018F000CF93DF93FC0182810FEF80FF01E010E0C6
:101900004EE1A42E809113011817C8F00E94900A8E
:101910008091E401013009F055C0811102C080912D
:10192000130181508093E401DF91CF911F910F91BA
:10193000FF90EF90DF90CF90BF90AF900895C0914F
:101940001101C12ED12CCC0DDD2DD11DCE01880F62
:10195000991FC80FD91FC85ADC4F198218821A82E2
:1019600034E0E32EF12CB12C8091E4018B0D8F310A
:101970001CF16A2D0E942627892F082E000C990B36
:10198000C816D90691F4809156038E9DA0018F9DB3
:10199000500D112455954795559547959E01609199
:1019A0005503809154030E94160AB00EF1E0EF1A1D
:1019B000F108D1F61F5FA6CF87FFDFCF909113010B
:1019C000890FDBCF90E001966091130170E00E94D7
:1019D0004827A8CF0F931F93CF93DF9380911101D6
:1019E0009091120123E0829FF0011124E85AFC4FEC
:1019F000891740F1C0E0D3E060911301C61740F1B0
:101A00000E94900A20910D018091E301820F809342
:101A1000E30190910E01920F90930E01191654F468
:101A2000082E000C990B409113014150550B84175F
:101A300095071CF0219520930D01DF91CF911F9107
:101A40000F9108951182108212828F5F3396D0CF4A
:101A50000C2F10E070E0C8010E944827209111016E
:101A6000820F482F50E02091E301022E000C330B2F
:101A700002171307BCF020910E01022E000C330B4D
:101A8000201731077CF08D9F90011124285A3C4F7C
:101A90004091560360915503809154030E94160AA9
:101AA000CF5FAACFFA01EE0FFF1FE40FF51FE85A30
:101AB000FC4F118210821282F3CF8F929F92AF92CD
:101AC000BF92CF92DF92EF92FF920F931F93CF932B
:101AD000DF93EC014C81042F10E09801D8010E94A3
:101AE0008C279B01AC010E94A2274B015C01E0E224
:101AF000F0E0E01BF10BA5E5B0E0AC019B010E941A
:101B0000A2276B017C019F01DF010E9484279B01BA
:101B1000AC010E94AD279B01AC01280D391D4A1D67
:101B20005B1DC701B6010E945C27F22E822F90E058
:101B300039E23F1560F143E0249F9001112435956F
:101B40002795122F109500E085E5E82EEF1880917B
:101B50001301081758F10E94900A9C8181E0992393
:101B600019F0903219F48FEF80930C0180910C01E1
:101B7000890F8C83DF91CF911F910F91FF90EF9090
:101B8000DF90CF90BF90AF909F908F90089525E504
:101B900030E0B901681B790B9B01220F331F260F20
:101BA000371F37FFCCCF2F5F3F4FC9CF8E2D01FDA1
:101BB0008F2D20911101622F600F7727771F9B01D6
:101BC000220F331F260F371F285A3C4F412F609199
:101BD00055030E94160A0F5FBACF0F931F93CF933E
:101BE000DF93EC0110E000E09091130190171106D3
:101BF00009F06CF40E94900A8C8190E0019681704B
:101C000099278C83DF91CF911F910F910895209197
:101C10001101A801420F511D9A01220F331F240FF9
:101C2000351F285A3C4F4C816091550380915403D5
:101C300096959017110651F04CF0442349F04091CD
:101C400056030E94160A0F5F1F4FCECF4423B9F3ED
:101C500040E0F7CF4F925F926F927F928F929F9268
:101C6000AF92BF92CF92DF92EF92FF920F931F93AA
:101C7000CF93DF93FC016280448081E08483E1E8BC
:101C8000F1E07490E0E0F2E0E491812C75E0972EB1
:101C9000F2E0CF2EDD24D394AA24AA94B12C5524AB
:101CA0005A94E7190E2F10E080911301881690F0D6
:101CB000DF91CF911F910F91FF90EF90DF90CF9028
:101CC000BF90AF909F908F907F906F905F904F905C
:101CD0000C94900AE82CF12C82E0861568F09E9C0A
:101CE000F0019F9CF00D1124EB51FE4F80915403A5
:101CF0008083809155038183411023C09E9CF00115
:101D00009F9CF00D1124EB51FE4F13821282209103
:101D10001101C701820F911D9C01220F331F280F53
:101D2000391F285A3C4F9E9CF0019F9CF00D1124B6
:101D3000EB51FE4F4281618180810E94160A83949B
:101D4000B3CF9E9CE0019F9CD00D1124CB51DE4F60
:101D50008B818823E9F081508B83859DC0011124FC
:101D60006C8170E00E943427FB01FF27EF57FE4F84
:101D70008491E82FE719E59DC0011124B8010E9464
:101D8000342780915603689FB00111247A83BFCF16
:101D90000E94012820915603269521582C9DA001D0
:101DA0002D9D500D1124452F5527841795070CF0B4
:101DB000AECF82E0861588F40E940128B5010E940A
:101DC000482788830E940128209155032695622F79
:101DD00070E00E944827280F29839E9CF0019F9C59
:101DE000F00D1124EB51FE4F128280915603893C75
:101DF00058F088EC9E9CF0019F9CF00D1124EB5153
:101E0000FE4F8483838383CF8431A0F784E1F2CFB4
:101E1000E3E5F3E080818E7F808360817181828140
:101E200093810E94350A109283022FEF80E792E09F
:101E3000215080409040E1F700C000000C94900ACF
:101E400060915303669570E04BE050E084E191E0CF
:101E50000E941128892B19F481E0809383020E944B
:101E60000E2090937C0280937B02089590915303FF
:101E700090FF35C09170811128C0926090935303F8
:101E8000662351F060915303709154038091550380
:101E9000909156030E94350A60915303669570E055
:101EA0004BE050E084E191E00E941128892BA1F0E1
:101EB0001092830281E080937E02409156036091EC
:101EC0005503809154030C94300C8B3210F09465C0
:101ED000D5CF880F982BD2CF0E94200FEBCF08953B
:101EE000682F90915303969581E0890F8B3208F00B
:101EF00081E00C94360F81E00C94700F682F909164
:101F0000530396958FEF890F09F48AE20C94360FEC
:101F100081E00C947E0F61E00C94360FE3E5F3E072
:101F200080818160808386950C948B0F8091530310
:101F300080FD0C94080F0C948E0F60E00C94360F0B
:101F40008091810281112EC00E948C1E811104C0DB
:101F50000E94311F0E94470A0E94310A6093530376
:101F60007093540380935503909356036E7F61F4EE
:101F70000E94470A0E94310A6093530370935403EE
:101F800080935503909356030E941B0A109283027C
:101F90008091530380FF03C086950E949D0F81E0CE
:101FA0008093810208950F931F93CF93DF938091C5
:101FB0008302882309F496C080918202E091530342
:101FC000E695E81BE0937D02823091F5F0E0E3585E
:101FD000FE4FE491CE2FD0E005EE1AE080917E0214
:101FE000882361F010927E020E940E2090937C0262
:101FF00080937B021092800210927F020E940E203A
:10200000E0917B02F0917C028E1B9F0B8F3F9F47DC
:1020100008F068C0EC0FFD1FF0937C02E0937B0298
:102020008BE792E0F801DF91CF911F910F91099416
:10203000863049F4F0E0E658FE4FE491CE2FD0E030
:1020400009EF1AE0CBCF893051F4E695F0E0E9587A
:10205000FE4FE491CE2FD0E003E31CE0BFCF8F30E2
:1020600051F4E695F0E0EC58FE4FE491CE2FD0E02D
:1020700000E71CE0B3CF853149F4F0E0EF58FE4FA4
:10208000E491CE2FD0E00AEE1CE0A8CFC8E2D0E069
:102090000DE51DE0883109F4A1CF833239F4EFE674
:1020A000F1E0C591D49109E01BE098CFC4EFD1E0F5
:1020B0000DEE1DE0843209F491CFC0EDD7E005E0CC
:1020C0001AE0853209F08ACF8E2F63E00E941A272A
:1020D000E92FF0E0E459FE4FE491CE2FD0E00AE280
:1020E0001EE07CCFDF91CF911F910F910895FA01EF
:1020F000811101C0FB010994CF93DF93C82FD62F24
:102100000E94570A8C1740F00E94570A8D1720F43E
:10211000DF91CF910C947B0F8C2FDF91CF910C949A
:102120008B0F1F93CF93DF93EC01FB0112811123DF
:1021300009F4C2C00E94C71D8272CD3CFCE5DF07D6
:1021400009F4A0C008F044C0C73CECE5DE0709F480
:1021500085C0F0F4C43C9CE5D90709F475C048F487
:10216000C33CDC4509F46CC0812FDF91CF911F91F6
:102170000895C53C9CE5D90709F46BC041EF5BE0CD
:1021800064EE7BE0C63CDC4579F70E9477105AC0CC
:10219000CA3CFCE5DF0709F46BC068F4C83CECE519
:1021A000DE0709F460C040E05CE06FE07CE0C93C21
:1021B000DC4559F3D9CFCB3C9CE5D90709F45DC088
:1021C0004AE85AE063E77AE0CC3CDC45F1F2CCCF58
:1021D000C23DFCE5DF0709F464C098F4CF3C9CE500
:1021E000D90709F458C008F452C0C03DFCE5DF0728
:1021F00009F454C0C13DDC4509F0B6CF6EE089E07A
:102200001CC0C53D9CE5D90709F451C058F4C33D35
:10221000FCE5DF0709F448C0C43DDC4509F0A4CF64
:1022200088E136C0C63D9CE5D90709F443C06AE29F
:1022300085E2CE35DD4509F097CF0E947C1002C0C3
:102240000E94960F10E090CF48E85FE06BE77FE0D8
:102250009CCF4BE75FE068E87FE097CF44EE5BE020
:1022600061EF7BE092CF4FE05CE060E07CE08DCFFF
:102270004DE25CE06EE17CE088CF4EE15CE06DE237
:102280007CE083CF43E75AE06AE87AE07ECF81E0E2
:102290000E948B0FD7CF65E082E0CFCF68E086E069
:1022A000CCCF64E18FE0C9CF67E185E1C6CF62E2C0
:1022B00089E1C3CF83E2ECCF11E056CF819A41B3DD
:1022C0004D7F51B35260EFB7F8949B01220F331F3B
:1022D000260F371F280F391F2817390741F4EFBF82
:1022E0008FE594E00197F1F700C000000895DC014C
:1022F0006D91CD0178E051BB000000C067FF41BB8C
:10230000660F000000C000C000C041BB00C07A954D
:1023100091F7E2CF0F931F93CF93DF93C42FD22F68
:10232000FC0182818823C9F0409386020E940E201E
:10233000909385028093840280E28C0F883008F0AD
:1023400050C0C77081E001C0880FCA95EAF7DF91DD
:10235000CF911F910F910C94AF1510918602141319
:1023600035C080918402909185020E942620883C8D
:10237000910560F5C0E2CD0F1D17B9F080E2810F25
:10238000883040F4177081E001C0880F1A95EAF791
:102390000E94B615C83048F481E09D2F977001C0A7
:1023A000880F9A95EAF70E94AF15802F0E94A71513
:1023B000C830B8F4D77081E001C0880FDA95EAF729
:1023C000DF91CF911F910F910C94B61580E28C0F85
:1023D000883038F4C77081E001C0880FCA95EAF7E9
:1023E000EFCFDF91CF911F910F9108950F939C0133
:1023F000CB01243F4CE5340759F1A8F4293DFCE515
:102400003F0701F12A3D4CE53407D1F1283D3C4519
:1024100091F406E221EE41EE68ED7CE50E948A111E
:1024200080E00F910895263FFCE53F07E9F0B0F00A
:10243000273F3C45F9F0FC018281882339F1109255
:102440008602EFCF07E225EE45EE69ED7CE5E6CFAB
:1024500006E221EE40EE64EF7CE5E0CF07E225EEF8
:1024600044EE65EF7CE5DACF06E221EE42EE66EF60
:102470007CE5D4CF07E225EE46EE67EF7CE5CECFD4
:1024800008E221E045EE6AED7CE5C8CF81E0C9CFE6
:10249000CF93DF93EC01FB018281882309F419C1FA
:1024A000C230FCE5DF07C0F1C6319CE5D90730F04A
:1024B0009E012B5F3C452930310570F50E949F1E1F
:1024C00090933A0380933903C031ECE5DE0709F4B9
:1024D000CFC008F05BC0C8308CE5D80709F4B6C09F
:1024E00088F5C430ECE5DE0709F4A8C0C0F4C230BA
:1024F0008CE5D80709F49CC0809139038260C33011
:10250000DC4509F498C08091390390913A030E9408
:10251000AD1E0E94281880E0DF91CF910895809130
:1025200039038061C630ECE5DE0709F484C0809190
:1025300039038860C730DC4508F47DC080913903D9
:10254000806279C0CC308CE5D80709F489C070F47A
:10255000809139038C60CA30ECE5DE0709F46BC06A
:1025600008F478C0809139038E7F65C0CE308CE549
:10257000D80709F479C0809139038B7FCF30DC45CF
:1025800008F459C0809139038F7E55C0CC3FECE5EB
:10259000DE0709F457C030F5C3318CE5D80709F4DC
:1025A0006FC078F4C131ECE5DE0709F465C0C231D3
:1025B000DC4509F0A8CF0E942818809139038F7755
:1025C0003AC0C5318CE5D80709F462C008F476C07A
:1025D00080913A038160CB3FDC4509F094CF809332
:1025E0003A0391CFC115FDE5DF0709F44DC088F42A
:1025F00080913A038D7FCE3F9CE5D90781F380918E
:102600003A038E7FCF3FDC4550F380913A038360DD
:10261000E6CFC230FDE5DF0709F459C008F444C035
:1026200080E0C330DD4509F06ECF0E94331F6BCFD1
:102630008091390381608093390365CF809139039C
:102640008460F9CF80913A038260C9CF80913903C9
:102650008064F1CF0E942818809139038068EBCF05
:10266000809139038D7FE7CF80913903877FE3CF56
:10267000809139038F7DDFCF809139038F7BDBCF52
:1026800080913903837FD7CF80913A038C7FA7CF86
:102690008091390382FB992790F921E0922790FBE2
:1026A00082F990FB83F9C7CF80913A03982F9095D8
:1026B00091708E7F892B90FB81F991CF0E94281811
:1026C00090913903892F97FB87F98058B4CF81E027
:1026D000ACCF81E021CFCF93DF93EB0186319C45D6
:1026E00011F50E94C71D9A81992399F08A7A91E089
:1026F00009F490E090938702811109C089E20E9459
:10270000811D0E94171E80E0DF91CF91089585E31F
:10271000F6CF80918702811104C089E20E94881D52
:10272000F0CF85E3FBCF81E0EFCF90938D028093D4
:102730008C020895E0918C02F0918D02309721F087
:102740000190F081E02D099480E00895E0918C02E1
:10275000F0918D02309721F00280F381E02D0994F1
:102760000895E0918C02F0918D02309739F022E0CB
:10277000DC012C930480F581E02D099408952091CB
:102780008A0230918B022817390771F090938B02DF
:1027900080938A02E0918C02F0918D02309721F0B3
:1027A0000680F781E02D09940895209188023091E8
:1027B00089022817390771F0909389028093880263
:1027C000E0918C02F0918D02309721F00084F18528
:1027D000E02D099408950E941A2060939F0270933F
:1027E000A0028093A1029093A20260939B02709337
:1027F0009C0280939D0290939E02089585B7806805
:1028000085BF85B7806885BF0895089508950C94A5
:10281000051408950C9409140E94FE1384E89EE1A7
:102820000E946A200E9406140C94071481E0089507
:102830000C941614089508950E941A140C941B14F5
:102840000E9405200E94F3050E94A00F0C940A1418
:102850008F929F92AF92BF92CF92DF92EF92FF92B0
:102860000F931F93CF93DF93CDB7DEB72A970FB6A1
:10287000F894DEBF0FBECDBF0E94280681110E94D2
:10288000EB135FE8852E52E0952E10E000E0A02EBD
:10289000802F0E94CA056C01F401E190F1904F0174
:1028A000E816F90609F45EC080912D0381FD0E94AF
:1028B000D305C7018C259D25B12CEE24E394F12C82
:1028C0009C012E213F21232B09F446C00E9418149D
:1028D0008823A9F0BE82AF82CE20DF2081E0CD2800
:1028E00009F480E088870E940E208160782F9A8703
:1028F00089874E815F8168858A850E94DC14000F7C
:10290000111FF801E157FD4F80819181E826F926DA
:10291000F182E0820E94D30F0E9453080E949A1312
:1029200090918E028917A9F10E949A1380938E02CA
:102930002A960FB6F894DEBF0FBECDBFDF91CF91C0
:102940001F910F91FF90EF90DF90CF90BF90AF90CD
:102950009F908F900C946D03B394EE0CFF1CF0E1EC
:10296000BF12AECF0F5F1F4F0630110509F08FCF9A
:102970008FEF89838A831B820E940E208160782FCB
:102980009D838C8349815A816B818D810E94DC14E7
:10299000C1CF2A960FB6F894DEBF0FBECDBFDF9130
:1029A000CF911F910F91FF90EF90DF90CF90BF904C
:1029B000AF909F908F900895DF92EF92FF920F93C8
:1029C0001F93CF93DF93CDB7DEB72B970FB6F89455
:1029D000DEBF0FBECDBF7A878B87F42E052F162F53
:1029E000E72ED82E61110E94E71D1E821D827E2DCA
:1029F000EC82DD824F2D502F612F8D2D9E812B96E5
:102A00000FB6F894DEBF0FBECDBFDF91CF911F91FF
:102A10000F91FF90EF90DF900C949E1AFC01808143
:102A200091810C94531DCF93C82F882309F447C07C
:102A30008CEF8C0F813AA0F46C2F80911F01909144
:102A400020010E944A1F882329F08C2F0E94881D94
:102A50000E94171E8C2F0E94811DCF910C94171E6F
:102A600080E28C0F883048F4C77081E001C0880F85
:102A7000CA95EAF70E94CA1DF0CFEBE5EC0FE330F0
:102A800040F4F0E0E453FE4F808190E0CF910C944D
:102A9000BF13E8E5EC0FE73150F4F0E0EE0FFF1F55
:102AA000E256FE4F80819181CF910C94D513CD3E9B
:102AB00030F08C2F0E946507CF910C943808CF918D
:102AC0000895882361F19CEF980F913A20F40E94B9
:102AD000881D0C94171E90E2980F983050F4877060
:102AE00091E001C0990F8A95EAF7892F0E94D01DC5
:102AF000F0CF9BE5980F933020F490E080E00C94A9
:102B0000BF1398E5980F973120F490E080E00C9483
:102B1000D5138D3E20F00E94BF070C94380808950D
:102B20001F93CF93DF93182FEB010E94131520976B
:102B300031F4812FDF91CF911F910C9461158FE9B2
:102B40009FE00197F1F700C000002197F0CF70E0FF
:102B500060E0893311F460E570E00C9490158823EF
:102B600021F00E94CA1D0C94171E0895882321F09D
:102B70000E94D01D0C94171E0895BF92CF92DF9231
:102B8000EF92FF920F931F93CF93DF936C01D62F99
:102B9000C72FFC011281058102950F700E949F1DB5
:102BA000E82E8823A1F0E12E112389F08C2F807F5D
:102BB000803429F080E28D0FE12C883040F082E0F3
:102BC0000E94681E0E949F1D91E0E82EE926BC2EFF
:102BD000B2949FE0B922EB2DF0E0E957F74D0C9449
:102BE0007E270C2F0F70C07F11F00295007F1123FC
:102BF000A9F0002359F080E28D0F883010F0D11138
:102C000009C0802F0E94CA1D0E94171E8D2F0E948E
:102C1000131514C0802F0E94DA1DF6CF8D2F0E944D
:102C20006115002359F080E28D0F883010F0D1112A
:102C30002CC0802F0E94D01D0E94171E2B2D2850C3
:102C4000330B2430310520F40E949A130E946D0347
:102C5000EE2009F49EC10E949B1D80FD9AC1F601E1
:102C600012820E94951D0E94221CC6010E94EA1732
:102C70000E94951DDF91CF911F910F91FF90EF90D2
:102C8000DF90CF90BF900C94431C802F0E94E01DDA
:102C9000D3CFFC2FFF70FF2EC07FC03219F0F2940B
:102CA00080EFF822DD2369F0D13049F1112391F151
:102CB000002351F1F601858180FFA8CF8F708583B5
:102CC00023C0112381F0011106C00E94FA1D8F2933
:102CD0000E94AF15B3CF0130C1F70E94FA1D8F29B2
:102CE0000E94001EABCF011106C00E940D1E8F2D49
:102CF0000E94B615A3CF013009F4A0CFF6CF11235F
:102D000029F0063008F09ACF8F2DE2CF053008F079
:102D100095CFEDCF002359F3D93349F4FFEF27EED8
:102D200033E0F15020403040E1F700C000008D2F2B
:102D30000E94611583CF8C2F86958695837069F0EC
:102D4000813009F07BCF8D2F9C2F9370111102C021
:102D500090E080E00E94D51371CF8D2F9C2F93704F
:102D6000111102C090E080E00E94BF1367CF8D2F49
:102D7000112329F00E9465070E9438085FCF0E9446
:102D8000BF07FACF8C2F837009F041C0111156CFC5
:102D90004D2F429546954770440F440F0D2F0F70ED
:102DA00010E030E020E0042E04C0000F111F221FAD
:102DB000331F0A94D2F760E070E0CB01D4FF0FC05C
:102DC0006FE070E080E090E004C0660F771F881F1E
:102DD000991F4A95D2F76095709580959095C69504
:102DE000C695C370602B712B822B932BC23049F098
:102DF00058F4C13019F00E94D41B20CF0E94C21B8E
:102E00001DCF0E94E61B1ACF0E94C01B17CF8695CC
:102E1000112311F08C2F8170882309F40FCF4D2FCF
:102E2000429546954770440F440F0D2F0F7010E0E8
:102E300030E020E0042E04C0000F111F221F331FBA
:102E40000A94D2F760E070E0CB01D4FF0FC06FE0CE
:102E500070E080E090E004C0660F771F881F991F24
:102E60004A95D2F76095709580959095C695C695D0
:102E7000C370602B712B822B932BC23049F058F416
:102E8000C13019F00E94991CD9CE0E94871CD6CE61
:102E90000E94AB1CD3CE0E94FC1BD0CECF7011235E
:102EA00029F08C2F0E94221C8D2F12CF8D2F0E9473
:102EB000B6158C2F0E94431CC1CED23F89F160F41D
:102EC000D03FC9F0D13F29F1112309F442C00111CB
:102ED0009DCE8C2F8F7121C0D33F39F1D43FA1F704
:102EE000112369F1CF718C2F0E94221C63E08C2F7B
:102EF0000E944D1EA3CE112341F0053008F09ECE56
:102F00008C2F8F710E94661C99CE063008F096CEE9
:102F1000F7CF8C2F8F71112369F20E94221C8ECE65
:102F20008C2F8F711123C9F3C5CF112329F08C2F5A
:102F30008F710E940D1C82CE0E94081C7FCE81E002
:102F40000E94681E023008F479CE82E00E94681E5A
:102F500075CE002359F0D93309F0E9CE8FEF97EE03
:102F6000E3E081509040E040E1F7DFCE8C2F8F719D
:102F7000A1CF4C2F4F706D2FC6010E9475030E9488
:102F8000381B5CCE4C2F4F706D2FC6010E9478030A
:102F900055CEDF91CF911F910F91FF90EF90DF9071
:102FA000CF90BF9008950F931F93CF93DF93EC01C1
:102FB000688179818A810E945D1D8C010E94BD1CFF
:102FC0000E94BF1BB801CE01DF91CF911F910F91DD
:102FD0000C94BD15CF93DF93EC018B819C81892BE1
:102FE00029F08881998189238F3F59F4DF91CF910E
:102FF0000895CE010E94D317CE01DF91CF910C949A
:10300000ED02CE010E940E038111F3CF0E949F1D9D
:10301000882361F38A81882349F382E0DF91CF918D
:103020000C94681E90E080E00E94BF1390E080E066
:103030000E94D5130E94E71D0E94F71D0E94171ED3
:103040000E945F090C9438080E948F1D0C9412187E
:103050000E94D71D0C942418E92FE295EF70E250DE
:10306000EE3070F4F0E0E956F74D0C947E27803F87
:1030700019F020F4883E20F481E00895843FE1F3C4
:1030800080E00895883EC0F3813FD1F7F5CF93FBF0
:10309000882780F908950E94531D0C942C18CF9313
:1030A000DF9300D000D00F92CDB7DEB70F900F9016
:1030B0000F900F900F90DF91CF910895CF93DF93F2
:1030C00000D000D000D0CDB7DEB726960FB6F8946A
:1030D000DEBF0FBECDBFDF91CF9108951F93CF9379
:1030E000DF93C091A40216E08091A5028C1304C066
:1030F000DF91CF911F910895D0E01C9FF0011D9F9B
:10310000F00D1124EA55FD4F408151816281738198
:10311000848195810E945E182196C770E5CF409109
:10312000D6025091D7026091D8027091D902809155
:10313000DA029091DB020C945E181F93CF93DF9319
:103140008091DB02807FA9F48091D802882389F0E6
:103150008091A402C091A5026091D6027091D7021D
:10316000A091D902B091DA02D62FD72316E0C81366
:1031700004C0DF91CF911F91089590E0109711F056
:10318000DF3F19F401968770F2CF189F9001199FC5
:10319000300D1124F901EA55FD4F41814713F2CF5B
:1031A00040814613EFCF42814111ECCF43815481DE
:1031B0004A1B5B0B483C510528F78091DB028F705E
:1031C00080618093DB02F901E555FD4F80818F70AE
:1031D0008061808386ED92E00E94EA17DF91CF91B3
:1031E0001F910C946E18AF92BF92CF92DF92EF9224
:1031F000FF920F931F93CF93DF93CDB7DEB7619705
:103200000FB6F894DEBF0FBECDBF8C0185E0F8018C
:10321000DE011D9601900D928A95E1F7F80140813B
:103220005181E28086EDC82E82E0D82E6091D902CD
:103230007091DA026115710509F461C19091D602AD
:103240002091D702892F82238F3F09F458C1A38090
:10325000B480F090D802F501E61BF70BFF2009F4CB
:10326000FCC08091DB02382F307FE83CF10508F08C
:10327000B2C0311179C0FE2C251323C0941321C094
:10328000E1101FC08F7080618093DB020E948F1855
:10329000C6010E94EA178091DB02F80185838F2D19
:1032A00061960FB6F894DEBF0FBECDBFDF91CF9110
:1032B0001F910F91FF90EF90DF90CF90BF90AF9054
:1032C0000895AB2829F0842F85238F3F09F033C15F
:1032D00080E0F82FF170DF2E80FF3CC08091A402C7
:1032E0002091A50236E0821315C04D875E878D853B
:1032F0009E850E94531D292F22952F702230F0F0B9
:10330000243018F59F70F1F0F8019581907FD1F489
:10331000D12C1EC090E0389FF001399FF00D112490
:10332000EA55FD4F6181651306C06081641303C0D7
:1033300062816E110FC001968770D5CF9F7011F01A
:10334000882331F3805E883018F3C8010E94EA17A1
:10335000FD2CA5CFEE2009F4A2CF8091DB02816085
:103360008093DB02F12C9BCF251306C0941304C07D
:10337000F801EE2009F48DC04D875E878D859E850E
:103380000E944B18882319F1EE2009F18091DB028D
:10339000803270F02091D6023091D70238872F8387
:1033A0001986BB86AA868C87CE0107960E94EA17EB
:1033B00086E0F801A6EDB2E001900D928A95E1F762
:1033C0000E949D180E948F18FF24F39468CFC801B3
:1033D0000E94EA17F9CF311113C07A2DB98AA88A51
:1033E0006E2D89890E944F1886ED92E00E94EA179F
:1033F00086E0F60111928A95E9F70E948F18B2CF04
:1034000025130FC094130DC0E1100BC0F801858384
:10341000C8010E94EA1786E0F60111928A95E9F741
:103420003ECF4D875E878D859E850E944B188823F1
:1034300071F2EE2061F28091DB02803208F4B8CFA5
:103440002091D6023091D7023A8329831B82BD8214
:10345000AC828E83CE010196A9CFE83CF10508F03D
:1034600041C0FE2CEE2009F4B2CF25132AC09413DC
:1034700028C08091DB0280FD1BC0982F907FC1F097
:10348000F8018583903F31F0982F907F905F8F7087
:10349000892B8583C8010E94EA1786E0F801A6ED12
:1034A000B2E001900D928A95E1F70E948F18F7CE55
:1034B00086E0F801A6EDB2E001900D928A95E1F761
:1034C000EECE4D875E878D859E850E944B188111BB
:1034D0006FCF8091DB0281608093DB02C8010E9484
:1034E000EA17DDCE7A2DB98AA88A6E2D89890E94C5
:1034F0004F1886E0F60111928A95E9F7D6CFEE20B3
:1035000009F465CF4D875E878D859E850E944B1897
:10351000F82E882309F45BCF86E0F801A6EDB2E02F
:1035200001900D928A95E1F786ED92E00E940E15CA
:103530000E949D18BACF81E08E25CBCE1F93CF93EA
:10354000DF93CDB7DEB72C970FB6F894DEBF0FBE72
:10355000CDBF4F83588769877A878B879C87CE0139
:1035600007960E94F318882369F08A859B85892B2A
:1035700039F04F815885842F85238F3F09F071C022
:1035800016E05FC086E0FE013796DE0111960190DD
:103590000D928A95E1F78A859B85892B89F38F8126
:1035A000988589238F3F61F32091A50230E0C901FE
:1035B0000196877099274091A4024817190671F463
:1035C0000E9428181092A5021092A40286E0E6ED4F
:1035D000F2E0DF011D928A95E9F7D2CF96E0929F43
:1035E000D001939FB00D1124AA55BD4FFE01319615
:1035F00001900D929A95E1F78093A5020E946E18B2
:10360000BFCF819FC00111248A559D4F0E94F3189E
:103610008823E9F0E091A4021E9FF0011124EA55ED
:10362000FD4F4081518162817381848195810E9427
:103630005E188091A40290E001968770992780938C
:10364000A4028091A4029091A5028913DACF2C964E
:103650000FB6F894DEBF0FBECDBFDF91CF911F91A3
:10366000089569857A858B859C850E945E1888CF30
:10367000EF92FF920F931F93CF93DF938C01892BCF
:1036800081F0F12CEE24E394E8012196F801849175
:10369000843770F4843008F05FC08130B1F082303C
:1036A000A1F1DF91CF911F910F91FF90EF900895BD
:1036B000853709F44CC008F43DC09CE7980F90375B
:1036C00080F78F770E94611549C00E5F1F4FFE0182
:1036D000849190E2980F983060F48770FE2D01C0BD
:1036E000FF0F8A95EAF78F2F0E94EA1D0E94171E8E
:1036F00002C00E9413158F2D815030F2EFE9FFE0D8
:103700003197F1F700C00000F7CF0E5F1F4FFE01A9
:10371000849190E2980F983050F48770FE2D01C08C
:10372000FF0F8A95EAF78F2F0E94F01DDFCF0E94CE
:103730006115E1CF0E5F1F4FFE01C491C150D8F259
:103740008FE99FE00197F1F700C00000F7CF0E5F0F
:103750001F4FFE01F490CFCF0E9413158E01CBCFE7
:1037600008950C94B01B0E94B11B60931C037093CE
:103770001D0380931E0390931F030C941218089549
:103780000C94B31B0F931F9300911C0310911D0306
:1037900020911E0330911F03602B712B822B932BE2
:1037A0001F910F910C94B31B0F931F9300911C0357
:1037B00010911D0320911E0330911F03602371237C
:1037C000822393231F910F910C94B31B0F931F938C
:1037D00000911C0310911D0320911E0330911F03C3
:1037E00060277127822793271F910F910C94B31B99
:1037F0000C94B01B0C94F81B0E94FA1B60931803E6
:103800007093190380931A0390931B030C9412185E
:1038100060E070E0CB010C94FC1B0F931F9341E020
:1038200050E060E070E08A019B0104C0000F111FAE
:10383000221F331F8A95D2F7C901B8011F910F913A
:103840000C94FC1B0F931F9341E050E060E070E08C
:1038500004C0440F551F661F771F8A95D2F78091C9
:10386000180390911903A0911A03B0911B038A01C8
:103870009B01082B192B2A2B3B2BC901B8011F9147
:103880000F910C94FC1B0F931F9341E050E060E0FC
:1038900070E004C0440F551F661F771F8A95D2F74A
:1038A000CB01BA01609570958095909500911803B1
:1038B0001091190320911A0330911B036023712387
:1038C000822393231F910F910C94FC1B0F931F9342
:1038D00041E050E060E070E004C0440F551F661FF7
:1038E000771F8A95D2F78091180390911903A091C0
:1038F0001A03B0911B038A019B01082719272A2765
:103900003B27C901B8011F910F910C94FC1B0F9329
:103910001F93009118031091190320911A033091FD
:103920001B03602B712B822B932B1F910F910C94F7
:10393000FC1B0F931F930091180310911903209102
:103940001A0330911B0360237123822393231F9159
:103950000F910C94FC1B0F931F930091180310916F
:10396000190320911A0330911B03602771278227C6
:1039700093271F910F910C94FC1B08959295907FB3
:10398000890F982F977041E001C0440F9A95EAF78C
:1039900086958695869595E0899FF0011124E452DD
:1039A000FD4F30E020E070E05191DF011197CB0135
:1039B000022E02C0969587950A94E2F78170819550
:1039C0008527842385278C932F5F3F4F2530310532
:1039D00059F708959295907F890F982F9770869543
:1039E0008695869525E0829FF0011124E452FD4FD3
:1039F00050E040E080E0219130E0092E02C0369591
:103A000027950A94E2F721703327042E01C0220F74
:103A10000A94EAF7822B4F5F5F4F4530510559F703
:103A20000895BF92CF92DF92EF92FF920F931F9370
:103A3000CF93DF938C01C0901803D0901903E090CE
:103A40001A03F0901B0380911C0390911D03A09119
:103A50001E03B0911F03C82AD92AEA2AFB2ACFE104
:103A6000D0E0BC2ED701C6010C2E04C0B695A79598
:103A7000979587950A94D2F780FD0EC0219788F715
:103A8000B12C8B2DDF91CF911F910F91FF90EF9073
:103A9000DF90CF90BF900895B8018C2F0E949603BD
:103AA000019761F3EECFCF93DF93EC010E94111DDC
:103AB000BE01DF91CF910C9496031F93CF93DF93B8
:103AC000EB019091A302992331F0CB01DF91CF91CB
:103AD0001F910C94531D882379F0CB010E94111D76
:103AE000182F682FCE010E94BE1CBE01812FDF91CE
:103AF000CF911F910C949603CB010E94EA1C182FC2
:103B0000F4CF682F80911F01909120010C94801FA9
:103B1000682F80911F01909120010C94821F809149
:103B20001F01909120010C94841F809120038595A2
:103B300085958595089580912003877008959091CB
:103B40002003977081E009F480E0089590913A0392
:103B500092FB222720F9281751F080FB92F99093CD
:103B60003A038091390390913A030C94AD1E089565
:103B700080913A0382FB882780F991E089270C9491
:103B8000A61D81E00C94A61D80E00C94A61D8091DA
:103B90002C03089590912C03892B80932C03089576
:103BA000809590912C03982390932C030895109264
:103BB0002C03089590912B03892B80932B03089558
:103BC000809590912B03982390932B030895109246
:103BD0002B03089590912A03892B80932A0308953B
:103BE000809590912A03982390932A030895109228
:103BF0002A03089580912103089508950C94FD1DD2
:103C000090913A0392FD08C090912103981721F0FA
:103C1000809321030C94FE1D089580912103882335
:103C200029F01092210380E00C94FE1D0895E0918C
:103C30001F01F091200180912C038083E0911F01EE
:103C4000F0912001808190912B03892B8083E0915A
:103C50001F01F0912001808190912A03892B80839C
:103C600090912103992381F0E0911F01F0912001AF
:103C70008081892B808380911F01909120010E9477
:103C8000381F81110E940D1E80911F01909120010B
:103C90000C94A61308950C944A1E90913A0392FD39
:103CA00010C098E0899F90011124622B609320033B
:103CB0000E94221C809120038595859585950C9402
:103CC0004B1E0C94221C1092200380E00C944B1E7F
:103CD000909120038095892380932003282F2770BB
:103CE00039F4282F082E000C330B9217130621F4F9
:103CF00090913A0392FF07C08595859585950E941E
:103D0000431C0C94631E089580E008956FEF7FEFCD
:103D100090E080E00C94502890E080E00E942C28F5
:103D200021E08A3E9E4F09F020E0822F089582E034
:103D300090E00C941E2883E090E00C941E28CF9312
:103D400084E090E00E941E28C82F82E290E00E944A
:103D50001E28982F8C2FCF910895CF93C92F682FAD
:103D600084E090E00E9432286C2F82E290E0CF91B4
:103D70000C943228AB01BC018FE090E00C944428F5
:103D8000AB01BC0183E190E00C94442860E070E05A
:103D9000CB010C94C01E60E070E0CB010E94BA1E03
:103DA0000C94C61E6AEE7EEF90E080E00E945028E0
:103DB00060E082E090E00E94322860E083E090E0E2
:103DC0000E94322810921C0310921D0310921E03B1
:103DD00010921F0360E084E090E00E94322860E0CF
:103DE00082E290E00E94322860E085E090E00E944C
:103DF000322860E086E090E00E9432286FEF87E092
:103E000090E00E94322840E050E0BA0188E090E063
:103E10000E94442860E08DE090E00E94322840E05B
:103E200050E0BA0188E190E00E94442860E087E118
:103E300090E00E94322840E050E0BA018CE190E02E
:103E40000E94442870E060E080E290E00E945028E8
:103E500040E050E0BA0188E190E00E9444280C94D0
:103E6000CB1E0C94D21E682F8EE090E00C9432286A
:103E70009C012E5F3F4FAC01485F5F4F80E02417ED
:103E8000350709F40895F90191919F019923B9F338
:103E90008F5FF5CF662349F0FC0132960896219199
:103EA000261729F0E817F907D1F780E0089581E097
:103EB00008959C01FC0132969FEF80E041914617E6
:103EC00051F09F3F19F4411101C0982F8F5F863048
:103ED000A9F79F3F09F40895290F311D97FD3A95E1
:103EE000F90162830895FC01329608962191261308
:103EF00003C0DF0111971C92E817F907B9F708957D
:103F00000C94591F0C94731F029626E0FC01119229
:103F10002A95E9F70895089508950C948C1F8091CF
:103F2000BA03843049F10E948D1F80E00E946D0326
:103F300010922E0388E190E020E40FB6F894A89543
:103F4000809360000FBE2093600083B7817F846000
:103F500083BF83B7816083BF7894889583B78E7F52
:103F600083BF0FB6F894A895809160008861809314
:103F70006000109260000FBE08950895CF930E94D4
:103F80008B1F0E9428060E94BD1FC0E08C2F0E943C
:103F9000CA05892B31F4CF5FC630C1F780E0CF91DD
:103FA000089581E0FCCF08950C94D31F0E94281837
:103FB0000E949A130E946D030C94D41F1F921FB687
:103FC0001F9211248F939F93AF93BF9380912E03E1
:103FD000811113C08091B2039091B303A091B403F7
:103FE000B091B5034196A11DB11D8093B20390938A
:103FF000B303A093B403B093B503BF91AF919F9166
:104000008F911F901FBE1F90189582E084BD93E092
:1040100095BD9AEF97BD80936E0008952FB7F894E1
:104020008091B2039091B303A091B403B091B50312
:104030002FBF08952FB7F8946091B2037091B30326
:104040008091B4039091B5032FBF08959C014FB7A1
:10405000F8948091B2039091B303A091B403B0910E
:10406000B5034FBF821B930B089578941F921FB620
:104070001F9211248F939F93AF93BF938091B203AC
:104080009091B303A091B403B091B5030196A11D23
:10409000B11D8093B2039093B303A093B403B09384
:1040A000B503BF91AF919F918F911F901FBE1F903D
:1040B000189587E797E7909301088093000888E1B7
:1040C0009AE00FB6F894A895809360000FBE909385
:1040D0006000FFCF9093D1018093D001089580912B
:1040E00037030895CF93DF9300D00F92CDB7DEB79B
:1040F0009091BA03943019F589837B836A8382E0B7
:104100008093E9008FEF9091E800815095FD06C003
:1041100095ED9A95F1F700008111F5CF8091E800B7
:1041200085FF0DC050E040E063E070E0CE010196F5
:104130000E9489228091E8008E778093E8000F909A
:104140000F900F90DF91CF910895BC0184E00C9403
:104150007220BC0183E00C9472209C0182E0809369
:10416000E9009FEF8091E800915085FD06C085ED44
:104170008A95F1F700009111F5CF8091E80085FF55
:104180000CC050E040E066E070E0C9010E94892266
:104190008091E8008E778093E8000895CF93DF93B5
:1041A000EC0181E08093E9008FEF9091E80081506D
:1041B00095FD06C095ED9A95F1F700008111F5CFB8
:1041C0008091E80085FF14C050E040E068E070E0B6
:1041D000CE010E9489228091E8008E778093E800CA
:1041E00088E0FE01AFE2B3E001900D928A95E1F71D
:1041F000DF91CF9108958091B903811109C00E9488
:1042000019240E9476248091E20084608093E20069
:1042100008951092B903089508950895089542E00D
:1042200061EC81E00E94952342E261EC82E00C9413
:1042300095238091BC03833009F45FC030F4813052
:10424000C1F1823009F49BC008958A3009F487C017
:104250008B3009F46DC0893009F04EC08091BB03EA
:10426000813209F049C08091BF039091C003029749
:1042700008F042C08091E800877F8093E800809139
:10428000E80082FF35C09091F3008091F200029720
:1042900029F48091F1008B7F813021F48091F1002D
:1042A000809337038091E8008B778093E8000C942B
:1042B000C9238091BB03813AF9F48091E800877F9C
:1042C0008093E8008091BF039091C003892B61F433
:1042D00068E08FE293E070E00E94D8228091E800CD
:1042E0008B778093E800089560E090E080E0F3CF62
:1042F0008091BA038111C3CF08958091BB03813AA5
:10430000D9F78091BF039091C003892BA9F78091C1
:10431000E800877F8093E8008091E80080FFFCCF71
:1043200080912B018093F1008091E8008E77BDCFC2
:104330008091BB03813201F78091BF039091C0034C
:10434000892BD1F68091E800877F8093E8000E9456
:10435000C9238091BD0380932B010C942818809170
:10436000BB03813249F68091E800877F8093E800A3
:104370000E94C9238091BE038093380308958091E1
:10438000BB03813A09F0B8CF8091E800877F809322
:10439000E8008091E80080FFFCCF80913803C2CF15
:1043A00084B7877F84BF0FB6F894A895809160008A
:1043B000886180936000109260000FBE80E890E0FA
:1043C0000FB6F89480936100909361000FBE0E9435
:1043D0000C140E9419240E9476248091E2008460CB
:1043E0008093E20078940E94FF260E94201481E2CC
:1043F00091E00E9495138091BA03853099F00E9454
:1044000028140E941C14F7CF0E948F1F8091B803BC
:10441000882341F00E94BE1F882321F00E9473224E
:104420000E9428188091BA03853071F30E94D61F2C
:10443000E6CF0C941B22292F33272330310519F1A5
:1044400068F42130310509F444C02230310509F403
:1044500045C090E080E030E020E025C02132310509
:1044600049F122323105A9F780E490E02EE734E0EB
:1044700061157105C1F08BE790E023E034E0613015
:10448000710589F0E6CF99278130910581F0009779
:1044900029F00297F1F6E6E8F3E002C0E2EBF3E080
:1044A000849190E09F01FA01318320830895EAE925
:1044B000F3E0F6CF89E090E028EC33E06115710578
:1044C00091F389E090E021EE33E06130710559F31A
:1044D000C0CF82E190E021EF33E0E5CF8BE390E0C5
:1044E00026EB33E0E0CF80E189BD82E189BD09B4EC
:1044F00000FEFDCF8091D8008F7D8093D800809101
:10450000E00082608093E0008091E00081FDFCCFBC
:104510000895AF92BF92CF92DF92FF920F931F93B5
:10452000CF93DF936C01EB018A010E94E823F82E00
:10453000811123C00115110539F0F80180819181A5
:10454000C81BD90BC80ED91EB12CA12C2097A9F0DD
:104550008091E80085FD22C08091E8008E778093ED
:10456000E80001151105A1F0F80180819181A80EE4
:10457000B91EB182A08285E0F82E8F2DDF91CF91F8
:104580001F910F91FF90DF90CF90BF90AF90089553
:104590000E94E8238823D1F2F82EEFCFF601819113
:1045A0006F018093F1002197FFEFAF1ABF0ACECFC2
:1045B000FC018091C1039091C20386179707A0F078
:1045C0006115710529F49091E8009E779093E800B9
:1045D00090E06115710551F4911108C08091E800D7
:1045E00082FF34C080E00895BC01F2CF8091BA030D
:1045F0008823C1F18530C1F18091E80083FD30C08E
:104600008091E80082FDEACF8091E80080FFE1CF51
:104610008091F3002091F200382F6115710519F097
:104620002830310558F091E02830310509F090E04C
:104630002091E8002E772093E800CBCF81918093E2
:10464000F100615071092F5F3F4FE7CF8091BA03AE
:10465000882341F0853041F08091E80083FFBECF90
:1046600081E0089582E0089583E00895FC0180913F
:10467000C1039091C20386179707A0F061157105D9
:1046800029F48091E8008E778093E80090E061152E
:10469000710551F4911108C08091E80082FF35C086
:1046A00080E00895BC01F2CF8091BA038823C9F15C
:1046B0008530C9F18091E80083FD31C08091E80028
:1046C00082FDEACF8091E80080FFE1CF8091F30086
:1046D0002091F200382F6115710519F0283031054D
:1046E00058F091E02830310509F090E08091E80021
:1046F0008E778093E800CBCF84918093F100319640
:10470000615071092F5F3F4FE6CF8091BA03882334
:1047100041F0853041F08091E80083FFBDCF81E01A
:10472000089582E0089583E00895982F973028F047
:104730008F708093E90081E008959093E900242F21
:10474000762F50E0981731F07091EC002091ED0039
:104750005091F00021FD02C09F5FE8CF3091EB0047
:104760003E7F3093EB003091ED003D7F3093ED00C4
:104770003091EB0031603093EB007093EC002093AC
:10478000ED005093F0002091EE0027FDE5CF80E092
:1047900008958091BB0387FF13C08091E80082FFDA
:1047A00006C08091E8008B778093E80004C0809178
:1047B000BA038111F2CF08958091BA038823D9F307
:1047C0008091E80080FFF8CF8091E8008E77ECCFF1
:1047D0002091E4003091E50095E6A9012091EC00DC
:1047E000822F817020FF06C08091E80080FF06C004
:1047F00080E008952091E80022FD1AC08091BA035C
:10480000882389F0853089F08091EB0085FD0FC009
:104810002091E4003091E50042175307F9F29150DE
:10482000E1F684E0089582E0089583E0089581E050
:1048300008950E9487240E948F24E0EEF0E080819A
:1048400081608083E8EDF0E080818F77808319BC00
:10485000A7EDB0E08C918E7F8C9380818F7E8083DA
:104860001092B90308950F931F93CF93DF930E9483
:1048700087240E948F24C8EDD0E088818F778883B9
:1048800088818068888388818F7D888319BC109295
:10489000BA031092B6031092B8031092B70300EE59
:1048A00010E0F80180818B7F80838881816088831C
:1048B00042E060E080E00E949523E1EEF0E080813C
:1048C0008E7F8083E2EEF0E0808181608083808152
:1048D00088608083F80180818E7F808388818061F9
:1048E0008883DF91CF911F910F910895E8EDF0E05B
:1048F00080818F7E8083E7EDF0E08081816080831E
:1049000084E082BF81E08093B9030C943324E8ED06
:10491000F0E080818E7F80831092E20008951092F3
:10492000DA001092E10008951F920F920FB60F92D5
:1049300011242F933F934F935F936F937F938F93A4
:104940009F93AF93BF93EF93FF938091E10082FF1A
:104950000BC08091E20082FF07C08091E1008B7F55
:104960008093E1000E94FE268091DA0080FF19C04A
:104970008091D80080FF15C08091DA008E7F8093EF
:10498000DA008091D90080FF96C080E189BD82E184
:1049900089BD09B400FEFDCF81E08093BA030E9477
:1049A000FB208091E10080FF19C08091E20080FF30
:1049B00015C08091E2008E7F8093E2008091E2003A
:1049C00080618093E2008091D80080628093D8005B
:1049D00019BC85E08093BA030E940D218091E1000B
:1049E00084FF2BC08091E20084FF27C080E189BD55
:1049F00082E189BD89B5982F917080FFFBCF8091AE
:104A0000D8008F7D8093D8008091E1008F7E8093C5
:104A1000E1008091E2008F7E8093E2008091E200CD
:104A200081608093E2008091B603882309F449C035
:104A300084E08093BA030E940E218091E10083FFFD
:104A400029C08091E20083FF25C08091E100877F2B
:104A50008093E10082E08093BA031092B6038091C4
:104A6000E1008E7F8093E1008091E2008E7F809351
:104A7000E2008091E20080618093E20042E060E029
:104A800080E00E9495238091F00088608093F00080
:104A90000E940C21FF91EF91BF91AF919F918F9157
:104AA0007F916F915F914F913F912F910F900FBE2A
:104AB0000F901F90189519BC1092BA030E940921FB
:104AC00070CF8091E30087FD93E09093BA03B3CF5A
:104AD0001F920F920FB60F9211242F933F934F9373
:104AE0005F936F937F938F939F93AF93BF93CF9376
:104AF000DF93EF93FF93D091E900DF708091EC009A
:104B0000C82FC17080FDC0E81092E9008091F000CC
:104B1000877F8093F00078940E94AC251092E90082
:104B20008091F00088608093F000CD2BCF70C0930F
:104B3000E900FF91EF91DF91CF91BF91AF919F91EC
:104B40008F917F916F915F914F913F912F910F9036
:104B50000FBE0F901F9018951F93CF93DF93CDB783
:104B6000DEB7AA970FB6F894DEBF0FBECDBF8BEBB2
:104B700093E02091F100FC012193CF01F3E0833C0D
:104B80009F07B9F70E9419218091E80083FF1EC199
:104B90008091BB039091BC039A3008F017C1E92FB4
:104BA000F0E0EB55F74D0C947E27803899F0823871
:104BB00009F00CC18091BF038F70873008F006C1E7
:104BC0008093E9008091EB0085FB882780F91092A3
:104BD000E90006C08091B7039091B80391118260FB
:104BE0009091E800977F9093E8008093F1001092F5
:104BF000F1008091E8008E77E5C0882309F4D3C0E6
:104C0000823009F0E3C08091BD038111D6C080914C
:104C1000BF038F702FEF280F263008F0D7C0809386
:104C2000E9002091EB0020FFC8C0933031F480915F
:104C3000EB0080628093EB00C0C09091EB0090612C
:104C40009093EB0021E030E001C0220F8A95EAF753
:104C50002093EA001092EA008091EB008860EACF8E
:104C60008111B4C01091BD031F778091E30080785B
:104C7000812B8093E3008091E800877F8093E80098
:104C80000E94C9238091E80080FFFCCF8091E3005F
:104C900080688093E30082E0111183E08093BA037F
:104CA00095C08058823008F091C08091BD039091EA
:104CB000BE038C3D23E09207A1F583E08A838AE25C
:104CC00089834FB7F894DE01139620E03EE051E26D
:104CD000E32FF0E050935700E49120FF03C0E295EA
:104CE000EF703F5FEF708E2F90E0EA30C0F0C79614
:104CF0008D939D932F5F243159F74FBF8091E8002A
:104D0000877F8093E8006AE270E0CE0101960E94FE
:104D1000D8228091E8008B778093E80057C0C09636
:104D2000E7CF6091BF037091C003AE014F5F5F4F4B
:104D30000E941922BC01892B09F448C09091E80017
:104D4000977F9093E80089819A810E943623E1CF72
:104D50008038E1F58091E800877F8093E8008091BA
:104D6000B6038093F10045CF811130C09091BD030F
:104D7000923060F58091E800877F8093E8009093FF
:104D8000B6030E94C9238091B603882311F084E002
:104D900005C08091E30087FDFACF81E08093BA03DC
:104DA0000E940F2113C08091BD03813079F481E00E
:104DB000933009F080E08093B8031092E90080916D
:104DC000E800877F8093E8000E94C9238091E80073
:104DD00083FF0AC08091E800877F8093E80080917C
:104DE000EB0080628093EB00AA960FB6F894DEBFCA
:104DF0000FBECDBFDF91CF911F9108950895CF933E
:104E00008091BA038823A1F0C091E900CF709091FE
:104E1000EC00892F817090FD80E8C82B1092E9008A
:104E20008091E80083FD0E94AC25CF70C093E9001B
:104E3000CF910895991B79E004C0991F961708F047
:104E4000961B881F7A95C9F78095089587FB082ED1
:104E5000062687FD819567FD61950E941A270EF44D
:104E6000919507FC81950895AA1BBB1B51E107C0D2
:104E7000AA1FBB1FA617B70710F0A61BB70B881FEA
:104E8000991F5A95A9F780959095BC01CD01089579
:104E900097FB072E16F4009407D077FD09D00E94E7
:104EA000342707FC05D03EF4909581959F4F0895D7
:104EB000709561957F4F0895A1E21A2EAA1BBB1B26
:104EC000FD010DC0AA1FBB1FEE1FFF1FA217B307D6
:104ED000E407F50720F0A21BB30BE40BF50B661FEC
:104EE000771F881F991F1A9469F7609570958095B0
:104EF00090959B01AC01BD01CF010895EE0FFF1FFE
:104F00000590F491E02D09940E948C27332312F42C
:104F10008A1B9B0B0C949D27A29FB001B39FC001DD
:104F2000A39F700D811D1124911DB29F700D811DD5
:104F30001124911D08950E948C27B7FF0895821BAC
:104F4000930B08950E948C27A59F900DB49F900D00
:104F5000A49F800D911D11240895B7FF0C94A227E2
:104F60000E94A227821B930B08958F929F92AF926B
:104F7000BF92CF92DF92EF92FF92CF93DF93EC013B
:104F8000688179818A819B8161157105810591050F
:104F900021F464E279ED8BE597E02DE133EF41E018
:104FA00050E00E94662849015A019B01AC01A7EA22
:104FB000B1E40E94A2276B017C01ACEEB4EFA50125
:104FC00094010E94B027DC01CB018C0D9D1DAE1D0C
:104FD000BF1DB7FF03C00197A109B048888399831B
:104FE000AA83BB839F77DF91CF91FF90EF90DF90F3
:104FF000CF90BF90AF909F908F9008950E94B5275B
:10500000089580E091E00E94B5270895B0E0A0E007
:105010008093000190930101A0930201B0930301DA
:105020000895FC014150504030F001900616D1F730
:105030003197CF010895882799270895F999FECFD0
:1050400092BD81BDF89A992780B50895A6E1B0E098
:1050500044E050E00C945828A8E1B0E042E050E071
:105060000C945828262FF999FECF92BD81BDF89A4D
:10507000019700B4021639F01FBA20BD0FB6F8949C
:10508000FA9AF99A0FBE08950396272F0E943328A3
:105090000E943228252F0E943328242F0C94332875
:1050A0000196272F0E9433280C943228DC01CB0173
:1050B000FC01F999FECF06C0F2BDE1BDF89A319628
:1050C00000B40D9241505040B8F70895052E97FB5B
:1050D0001EF400940E947D2857FD07D00E945C2793
:1050E00007FC03D04EF40C947D28509540953095E4
:1050F00021953F4F4F4F5F4F089590958095709544
:1051000061957F4F8F4F9F4F0895F894FFCFF11512
:10511000F115491649169B16B7161E161E16C2160D
:105120004E175D175D17B9171E161E16C2173718D2
:1051300037184018401842184018401840183718BF
:1051400037184718401840184718D525FD25E6267A
:0E515000FD25E62630265126E626A826B426A2
:10515E00010000002808641E140A321E010102001C
:10516E001E001E1E01191A1B1C1D1E1F202122228D
:10517E00036F20CE20AD20A920A52001E200E9007A
:10518E00EA00B500B600B700CD008301CC008A015D
:10519E0092019401210223022402250226022702F3
:1051AE002A02B300B4006F0070008182833037C6CC
:1051BE0034000000000000000000000000F0929398
:1051CE0095949700010202020206060609090909D2
:1051DE0009090F0F0F0F0F0F15151518191919199A
:1051EE001919191919192324252525252525E20014
:1051FE00E900EA00B500B600B700CD008301CC008F
:10520E008A01920194012102230224022502260220
:10521E0027022A02B300B4006F007000818283005F
:00000001FF
